:020000040800F2
:1000000030040020710D00084D0D00084F0D000850
:10001000510D0008530D0008550D000800000000A8
:10002000000000000000000000000000570D000864
:10003000590D0008000000005B0D00085D0D000870
:100040008D0D0008910D0008950D0008990D000810
:100050009D0D0008A10D0008A50D0008A90D0008C0
:10006000AD0D0008B10D0008B50D0008B90D000870
:10007000BD0D0008C10D0008C50D0008C90D000820
:10008000CD0D0008D10D0008D50D0008D90D0008D0
:10009000DD0D0008E10D0008E50D0008E90D000880
:1000A000ED0D0008F10D0008F50D0008F90D000830
:1000B000FD0D0008010E0008050E0008090E0008DD
:1000C0000D0E0008110E0008150E0008190E00088C
:1000D0001D0E0008210E0008250E0008290E00083C
:1000E0002D0E0008310E0008350E0008390E0008EC
:1000F0003D0E0008410E0008450E0008490E00089C
:100100004D0E0008510E0008550E0008590E00084B
:100110005D0E0008610E0008650E0008690E0008FB
:100120006D0E0008710E0008750E0008790E0008AB
:100130007D0E0008810E0008850E0008890E00085B
:100140008D0E0008910E0008950E0008990E00080B
:100150009D0E0008A10E0008A50E0008A90E0008BB
:10016000AD0E0008B10E0008B50E0008B90E00086B
:10017000BD0E0008C10E0008C50E000800000000FA
:10018000C90E0008CD0E0008D10E0008D50E0008DB
:10019000D90E0008DD0E0008E10E0008E50E00088B
:1001A000E90E0008ED0E0008F10E00082DE9F843F5
:1001B000040017D02078B64EC10741D5B06800F0D2
:1001C0000C00042807D0B06800F00C0008280BD100
:1001D0007068410208D53168880331D5606800280D
:1001E00040F0B680012050E16068B0F5803F06D055
:1001F000B0F5A02F316807D141F48021316030681B
:1002000040F48030306006E021F4803131603268A3
:1002100022F480223260606868B100F041F905463E
:100220003168880300F1948000F03AF9401B65289A
:10023000F6D3032029E100F033F905463068810345
:1002400040F1868000F02CF9401B6528F6D3F0E7DA
:1002500000F026F9401B022840F2A780E9E7E06899
:1002600070B10121396000F01BF905463068810743
:1002700000F1CB8000F014F9401B0228F6D9D8E732
:10028000386000F00DF905463068810763D500F04D
:1002900007F9401B0228F7D9CBE7086000F000F906
:1002A0000546706F810775D500F0FAF8401B0228EB
:1002B000F7D9BEE70528306F06D140F0040030675B
:1002C000306F40F0010005E0400840003067306FBB
:1002D00020F00400306741F28938A06868B100F06E
:1002E000DFF88146306F810700F19C8000F0D8F87C
:1002F000A0EB09004045F5D39BE700F0D1F881461B
:10030000306F810740F18E8000F0CAF8A0EB090041
:100310004045F5D38DE700F0C3F8401B022840F2BA
:10032000968086E700F0BCF8001B022840F2A88007
:100330007FE70020386600F0B3F80446306881019A
:1003400040F1A28000F0ACF8001B0228F6D970E75B
:100350002078504F81071BD5B06810F00C0F09D0E2
:10036000B06800F00C0008287FF479AF7068410293
:100370003FF575AF3168880703D5E06801287FF441
:1003800031AF3168206921F0F80141EAC0013160E4
:10039000217808070DD560693F4900283FF47DAFFB
:1003A00001220A6000F07CF80546706F81077FF536
:1003B0004FAF217848073AD5306C0025C1000AD4E8
:1003C00000950125306C40F080503064306C00F0B6
:1003D000805000900098DFF8C480D8F80010C8055D
:1003E0001BD4D8F8000040F48070C8F8000000F07A
:1003F00057F88146D8F80010C8050ED400F050F820
:10040000A0EB09000228F5D913E73068216920F034
:10041000F80040EAC1003060BAE7A06801287FF424
:1004200049AF4DE71DB1306C20F080503064A069B9
:1004300050B3B16801F00C0108293FF4D3AE022893
:100440007FF477AF0020386600F02AF80546306860
:1004500081013FF560AFE169206AA26A0143606AE9
:10046000921ED20341EA8011120CE06A41EA024175
:1004700041EA006171600121396600F011F804461B
:10048000306881017FF54EAF0020BDE8F28300BFE8
:100490000038024000004742800E47420070004092
:1004A00001484068704700BF000000202DE9F84F68
:1004B0004FF0000E6F4CDFF8C081DFF8C0914FF0B5
:1004C0000F0A02460B4601211D6801FA0EF10D408C
:1004D0008D4240F0BC805E68022E18BF122E4FEA9B
:1004E0008E0012D14FEADE0602EB860C00F01C06ED
:1004F000DCF820700AFA06FB27EA0B07D3F810B0E5
:100500000BFA06F63E43CCF820604FEA4E0C032669
:10051000176893F804B006FA0CF6F6430BF0030BD9
:1005200037400BFA0CFB4BEA070717605F68012F97
:1005300018BF022F03D0112F18BF122F12D19768A6
:10054000D3F80CB037400BFA0CFB4BEA0707976067
:10055000576827EA01015F68C7F3001707FA0EF72B
:1005600039435160D1680E40996801FA0CF131436A
:10057000D1605968C9006AD50026009600F00C00C9
:10058000D9F8001041F48041C9F80010D9F8006092
:1005900006F4804600960AFA00F600994FEA9E019A
:1005A00058F82170B743364EB24208BF00262CD00F
:1005B000344EB24208BF012627D0334EB24208BFA4
:1005C000022622D0314EB24208BF03261DD0304E43
:1005D000B24208BF042618D02E4EB24208BF0526EC
:1005E00013D02D4EB24208BF06260ED02B4EB2427B
:1005F00008BF072609D02A4EB24208BF082604D0F9
:10060000284EB2420CBF09260A2606FA00F03843EB
:1006100048F82100E84321685E680140F60348BFBE
:100620002943216061685E680140B60348BF2943E1
:100630006160A1685E680140F60248BF2943A1607D
:10064000E16801405868800248BF2943E1600EF12B
:10065000010EBEF10F0F7FF636AFBDE8F18F81B00E
:1006600002B90904816101B070474269514041619A
:1006700070470000003C0140083801404438024007
:10068000000002400004024000080240000C02404A
:10069000001002400014024000180240001C0240FA
:1006A00000200240002402402DE9F04104000F46E2
:1006B00077D0404E306800F00F00B84202D200F010
:1006C00072F86ED120683C4D810712D5400703D5E2
:1006D000A86840F4E050A8602178080703D5A8680E
:1006E00040F46040A860A968A06821F0F0010143CF
:1006F000A9602078C1074CD56068012802D129681B
:100700008A0305E0022818BF032803D129688A015B
:1007100003D446E02A68910743D5A968890840EACE
:100720008100A860FFF7BCFE8046A868616800F001
:100730000C00B0EB810F2CD0FFF7B2FEA0EB08004D
:1007400041F289329042F0D3032020E02078410723
:1007500005D5A968E06821F4E0510143A96020783B
:10076000010706D5A868216920F4604040EAC1006D
:10077000A86000F027F8AA681049C2F30312895C48
:100780000F4AC84010600F2000F048F80020BDE874
:10079000F081306800F00F008742D7D200F003F8F4
:1007A000D4D00120F3E73770316801F00F01B9426E
:1007B00070470000003C024000380240640C000812
:1007C0001800002018B5124C606800F00C000428D6
:1007D00002D0082802D019E00E4812BD002322687A
:1007E000206841022068C0F388104CBF09490A49BB
:1007F00002F03F02A1FB000100F030F82168C1F3D4
:100800000141491C4900B0FBF1F012BD024812BD84
:100810000438024000127A000024F40038B50D4D6F
:100820000D4A297804464FF47A70B0FBF1F1106854
:10083000B0FBF1F000F0C3F850B9102C08D2002240
:1008400021464FF0FF3000F09DF8AC60002032BD33
:10085000012032BD00000020180000201B4213D1EF
:10086000094236D12AB18446B0FBF2F002FB10C235
:10087000704700F0C3B8FCD30022002370470B0080
:100880000200002100207047904271EB030CF6D368
:1008900070B5B1FA81F4B3FA83F52C1BA340C4F10F
:1008A000200532FA05F63343A2405FF00046E640E9
:1008B00002E05B085FEA3202841A71EB030524BF91
:1008C000204629467641F4D302000B003000002177
:1008D00070BD012ACFD970B5140C20D0B1FA81F4C3
:1008E000B2FA82F5C4F120046419B4F12006D6D31B
:1008F000B2405FF00044F440002502E052085FEA95
:100900003303C61A71EB020E24BF304671466441B0
:100910006D41F3D302000B002000290070BD0C468E
:10092000B1FBF2F102FB11452D0445EA1045B5FB80
:10093000F2F402FB145580B240EA0545B5FBF2F033
:1009400002FB105240EA044070BD0000090100287B
:1009500081B002D4244A115405E0244A00F00F006B
:10096000104400F8041C01B07047214A13684FF688
:10097000FF0100020B4000F4E06018431D490843EA
:100980001060704738B51A4B1C68C4F30223C3F1DA
:100990000704052C28BF04241D1D072D34BF002388
:1009A000DB1E012505FA04F4641E2140994005FA76
:1009B00003F35B1E1A401143BDE83440C6E710B58F
:1009C000401EB0F1807F01D3012010BD0A4C606051
:1009D0000F214FF0FF30FFF7B9FF0022A260072080
:1009E0002060002010BD000000E400E018ED00E0F1
:1009F0000CED00E00000FA0510E000E07047000098
:100A000030B593B000F08EF80020009000213E4CED
:100A1000206940F080502061206900F080500090F3
:100A200000983A4800910121026842F44042026075
:100A30004FF4A022006800F4404000900098069116
:100A400002200C904FF480010D9108200E904FF47D
:100A5000B4710F910220109007210792119106A8FE
:100A6000FFF7A4FB08B100F057F800F073F808B1E5
:100A700000F052F80F200190022100200291039013
:100A80004FF4A0514FF4805004910590052101A826
:100A9000FFF70AFE08B100F03FF80020009021683F
:100AA0001B4D41F0020121600021206800F002008E
:100AB0000090009800910121226842F00202226019
:100AC0002068144C00F00200009000986160032040
:100AD000A160E060216028462146FFF7E7FC802006
:100AE000206021462846FFF7E1FC01212846FFF758
:100AF000BCFD642000F06AF880212846FFF7B5FDB0
:100B0000642000F063F8F0E73038024000700040E5
:100B1000000402401C00002080B5002000F06AF8AC
:100B2000FEE7000080B50948016841F400710160EA
:100B3000026842F4807202600320FFF716FF0F2064
:100B4000FFF76CFE00F004F8002002BD003C0240FC
:100B500070470000F8B500F027F8012100F01EF8FA
:100B60003160FFF79DFC07462868C1030CD4FFF7EE
:100B700097FCC01BA042F7D30320F2BDFFF790FC07
:100B8000801BA04205D3F7E701207060FFF788FCC7
:100B9000064628688103F1D50020F2BD006800F008
:100BA00080500090009870470020009040F2E93497
:100BB0000448054E0168024D41F0805101607047C4
:100BC000047000404038024040000E4238B50446F0
:100BD000FFF766FC14F1010F054602D004480178C6
:100BE0006418FFF75DFC401BA042FAD331BD00BF83
:100BF000000000200FF21401034B31F8101053F8DD
:100C000020000022FFF72BBD0C0000200100800017
:100C1000004000000E48016841F4700101600022AC
:100C20000C49086840F0010008608A600A480A68B8
:100C300002400A60002209484860086820F48020C9
:100C40000860CA604FF00060054908607047000006
:100C500088ED00E000380240FFFFF6FE103000246F
:100C600008ED00E0000000000000000001020304A5
:100C70000607080930B5016884684218416802EB2C
:100C80005103C9070BD54C4409E012F9011B12F8B6
:100C9000015B002904F8015B05D5491CF9D19A4292
:100CA000F3D10C3030BD491EF1D5F8E710B5074936
:100CB00079441831064C7C44163404E00A68081D57
:100CC000114488470146A142F8D110BD2C00000014
:100CD000380000004EF68851CEF20001086840F45A
:100CE00070000860BFF34F8FBFF36F8F4FF000703D
:100CF000E1EE100A704700007DFFFFFFF8010000E1
:100D0000320000000000002000F00BF8002801D0A5
:100D1000FFF7CCFF0020AFF30080FFF771FE00F07B
:100D200002F80120704700F001B80000074638467D
:100D300000F002F8FBE7000080B5AFF30080024A44
:100D400011001820ABBEFBE7260002007047FEE74B
:100D5000FEE7FEE7FEE770477047704700F000B817
:100D600002484168027889184160704700000020FD
:100D70000148804701480047150C0008810D000814
:100D8000AFF30080FFF7A6FFFFF7BEFFFFF7FEBF40
:100D9000FFF7FEBFFFF7FEBFFFF7FEBFFFF7FEBF87
:100DA000FFF7FEBFFFF7FEBFFFF7FEBFFFF7FEBF77
:100DB000FFF7FEBFFFF7FEBFFFF7FEBFFFF7FEBF67
:100DC000FFF7FEBFFFF7FEBFFFF7FEBFFFF7FEBF57
:100DD000FFF7FEBFFFF7FEBFFFF7FEBFFFF7FEBF47
:100DE000FFF7FEBFFFF7FEBFFFF7FEBFFFF7FEBF37
:100DF000FFF7FEBFFFF7FEBFFFF7FEBFFFF7FEBF27
:100E0000FFF7FEBFFFF7FEBFFFF7FEBFFFF7FEBF16
:100E1000FFF7FEBFFFF7FEBFFFF7FEBFFFF7FEBF06
:100E2000FFF7FEBFFFF7FEBFFFF7FEBFFFF7FEBFF6
:100E3000FFF7FEBFFFF7FEBFFFF7FEBFFFF7FEBFE6
:100E4000FFF7FEBFFFF7FEBFFFF7FEBFFFF7FEBFD6
:100E5000FFF7FEBFFFF7FEBFFFF7FEBFFFF7FEBFC6
:100E6000FFF7FEBFFFF7FEBFFFF7FEBFFFF7FEBFB6
:100E7000FFF7FEBFFFF7FEBFFFF7FEBFFFF7FEBFA6
:100E8000FFF7FEBFFFF7FEBFFFF7FEBFFFF7FEBF96
:100E9000FFF7FEBFFFF7FEBFFFF7FEBFFFF7FEBF86
:100EA000FFF7FEBFFFF7FEBFFFF7FEBFFFF7FEBF76
:100EB000FFF7FEBFFFF7FEBFFFF7FEBFFFF7FEBF66
:100EC000FFF7FEBFFFF7FEBFFFF7FEBFFFF7FEBF56
:100ED000FFF7FEBFFFF7FEBFFFF7FEBFFFF7FEBF46
:100EE000FFF7FEBFFFF7FEBFFFF7FEBFFFF7FEBF36
:100EF000FFF7FEBF0001F9000010FC000D040240E6
:0D0F000000040240000402400024F4EB0055
:0400000508000D8161
:00000001FF
