:020000040800F2
:1000000088070024D10001081D010108D903000858
:100010001D0101081D0101081D010108000000006B
:100020000000000000000000000000001D010108A9
:100030001D01010800000000230300082D6A0008CC
:100040001D0101081D0101081D0101081D01010814
:100050001D0101081D0101082D72000845720008EC
:100060005D720008757200088D7200081D0101089C
:100070001D0101081D0101081D0101081D010108E4
:100080001D0101081D0101081D0101081D010108D4
:100090001D0101081D0101081D010108A5720008CC
:1000A0001D0101081D0101081D0101081D010108B4
:1000B0001D0101081D0101081D0101081D010108A4
:1000C0001D0101081D0101081D0101081D01010894
:1000D0001D0101081D0101081D0101081D01010884
:1000E000D97200081D010108000000001D0101086F
:1000F0001D0101081D0101081D0101081D01010864
:100100001D0101081D0101081D0101081D01010853
:10011000518200081D0101081D0101081D0101088F
:100120001D0101081D0101081D0101081D01010833
:100130001D0101081D0101081D0101081D01010823
:1001400000000000000000000000000000000000AF
:100150001D0101081D0101081D0101081D01010803
:100160001D0101081D0101081D0101081D010108F3
:100170001D0101081D0101081D0101081D010108E3
:100180001D0101081D0101081D0101081D010108D3
:100190001D0101081D0101081D0101081D010108C3
:1001A0001D0101081D0101081D0101081D010108B3
:1001B0001D0101081D0101081D0101081D010108A3
:1001C0001D0101081D0101081D0101081D01010893
:1001D0001D0101081D0101081D0101081D01010883
:1001E0001D0101081D0101081D0101081D01010873
:1001F0001D0101081D0101081D0101081D01010863
:100200001D0101081D0101081D0101081D01010852
:100210001D0101081D0101081D0101081D01010842
:100220001D0101081D0101081D0101080000000059
:100230001D0101081D010108000000001D01010849
:100240001D0101081D0101081D0101081D01010812
:100250001D0101081D0101081D0101081D01010802
:100260001D0101081D0101081D0101081D010108F2
:100270001D0101081D0101081D0101080000000009
:100280001D0101081D0101081D01010800000000F9
:10029000000000001D01010810B5054C237833B99A
:1002A000044B13B10448AFF300800123237010BD49
:1002B0008807002400000000CC220108084B10B57C
:1002C0001BB108490848AFF300800848036803B928
:1002D00010BD074B002BFBD0BDE81040184700BFF6
:1002E000000000008C070024CC22010888050024AF
:1002F00000000000EFF3108072B6704780F31088A2
:100300007047444A1368012B04D04FF00103136077
:10031000414A1060414A116041484FF080510160EC
:100320007047EFF3108272B63A48016851B34FF04C
:10033000000101603848016891B1EFF309811EF0B6
:10034000100F08BF21ED108B21E9F00F4FF00004D2
:100350001EF0100F08BF012441F8044D0068016031
:100360002E490968096808C9B1E8F00F002B18BFC9
:10037000B1EC108B81F309884EF0100E002B18BFE2
:100380002EF0100E82F310884EF0040E70472349B1
:100390000860EFF3148222F0040282F314881E49ED
:1003A0004FF0000008601B494FF0010008601D4835
:1003B0001D49D0F8002041EA0201016018484FF0C1
:1003C0008051016019480068006800BF80F3088808
:1003D00061B662B6704700BFEFF308801EF0040FED
:1003E00001D0EFF3098020E9F00F40F804ED40F868
:1003F00004ED1EF0040F02D080F3098801E080F3C1
:10040000088800B503F0F4F85DF804EB4EF0040E34
:1004100070470000480E0024440E0024400E0024C3
:1004200004ED00E020ED00E00000FFFF08ED00E03B
:1004300053B94AB9002908BF00281CBF4FF0FF314B
:100440004FF0FF3000F07EB9ADF1080C6DE904CE3D
:1004500000F006F8DDF804E0DDE9022304B070479F
:100460002DE9F0478C460E460446089D002B50D1DE
:100470008A4217466CD9B2FA82FEBEF1000F0BD049
:10048000CEF1200420FA04F401FA0EF644EA060C38
:1004900002FA0EF700FA0EF44FEA1749220CBCFBE1
:1004A000F9F01FFA87F809FB10C642EA064600FB7E
:1004B00008F3B34209D9F61900F1FF3280F0228126
:1004C000B34240F21F8102383E44F61AA2B2B6FB94
:1004D000F9F309FB136642EA064403FB08F8A0455A
:1004E00009D9E41903F1FF3280F00A81A04540F2F6
:1004F0000781023B3C44C8EB040443EA004000216E
:10050000002D62D024FA0EF400232C606B60BDE84D
:10051000F0878B4207D9002D55D0002185E8410096
:100520000846BDE8F087B3FA83F1002940F09080D7
:10053000B34202D3824200F2F880841A66EB0306CB
:100540000120B446002D40D085E81010BDE8F087AA
:1005500012B90127B7FBF2F7B7FA87FEBEF1000F19
:1005600035D1F31B4FEA17481FFA87FC0121B3FB73
:10057000F8F0220C08FB103642EA06460CFB00F3AA
:10058000B34207D9F61900F1FF3202D2B34200F2AA
:10059000CE801046F61AA2B2B6FBF8F308FB13663B
:1005A00042EA06440CFB03FCA44507D9E41903F115
:1005B000FF3202D2A44500F2B5801346CCEB04040E
:1005C00043EA00409CE729462846BDE8F087CEF183
:1005D000200106FA0EF307FA0EF720FA01F94FEAA6
:1005E0001748CE4049EA0309B6FBF8FA4FEA194426
:1005F00008FB1A661FFA87FC44EA06430AFB0CF262
:100600009A4200FA0EF40AD9DB190AF1FF3180F0A0
:1006100087809A4240F28480AAF1020A3B449B1AE6
:100620001FFA89F9B3FBF8F108FB113349EA0343D8
:1006300001FB0CF69E4207D9DB1901F1FF326BD2A8
:100640009E4269D902393B449B1B41EA0A418EE72D
:10065000C1F1200E22FA0EF48B40234320FA0EF74C
:1006600006FA01F44FEA134C26FA0EF63C43B6FBA9
:10067000FCF9270C0CFB19661FFA83F847EA0646BB
:1006800009FB08F7B74202FA01F200FA01FA08D9A9
:10069000F61809F1FF3041D2B7423FD9A9F102095A
:1006A0001E44F61BA0B2B6FBFCF40CFB146640EA39
:1006B000064704FB08F8B84507D9FF1804F1FF30D6
:1006C00028D2B84526D9023C1F4444EA0940C8EB69
:1006D0000707A0FB02894F4544464E4614D329D054
:1006E00065B3BAEB040367EB060707FA0EFECB40CF
:1006F000CF404EEA030385E888000021BDE8F0877B
:100700001346F8E61046E0E6B8EB020469EB030690
:100710000138E5E70446D8E7114695E78146C0E78A
:100720008A467CE7023B3C4448E708460AE7023831
:100730003E442FE7C245E7D33E46D1E72946BDE810
:10074000F08700BF704700BF80B400AF034B1B6849
:100750001846BD465DF8047B704700BFA40700241F
:1007600080B582B000AF134B1B680133114A136090
:1007700002F000FA78607B681B6C5A1E7B681A6472
:100780007B681B6C002B0ED17B68DA6B7B681A646C
:100790007B6893F8343043F00803DAB27B6883F85F
:1007A000342002F04BFA02F0F5FC00BF0837BD46DA
:1007B00080BD00BFA407002480B400AF002318460A
:1007C000BD465DF8047B704780B400AF0023184637
:1007D000BD465DF8047B704780B400AF0023184627
:1007E000BD465DF8047B704780B400AF0023184617
:1007F000BD465DF8047B704780B582B000AF084B02
:100800007B6005E07B681B6898477B6804337B60EE
:100810007B68044A9342F5D300BF0837BD4680BDCC
:10082000A4220108B022010880B582B000AF084BB5
:100830007B6005E07B681B6898477B6804337B60BE
:100840007B68044A9342F5D300BF0837BD4680BD9C
:10085000B0220108B822010880B584B000AFF8606A
:10086000B9601346FB80FB68002B02D14FF0FF33C9
:1008700018E0B86800F01AF80346002B02D04FF0D9
:10088000FF330FE0FB68BA680921184601F014FD38
:10089000FB68FA88DA82FB6800229A76FB680022FD
:1008A0001A83002318461037BD4680BD80B586B038
:1008B00000AF786002F05EF90346002B01D002F031
:1008C0000DF8092001F0D4FC38613B695B687B615D
:1008D00017E07B690C3BFB60FB68082279681846CF
:1008E00000F028FD0346002B08D102F043F903462F
:1008F000002B01D002F008F8FB680FE07B691B6851
:100900007B613B691A1D7B699A42E2D102F032F9A0
:100910000346002B01D001F0F7FF002318461837DB
:10092000BD4680BD80B584B000AF78600B467B804B
:100930000023FB607B68DB8A03F01003002B1AD1D5
:100940007B685B6A002B0FD07B685B6A786898478E
:10095000F860FB68002B07D07B68FA6819462448CA
:1009600001F092F9FB683EE07B68DB8A43F01003FC
:100970009AB27B68DA827B68DB8A03F00803002B7B
:1009800008D07B681B8B03F00803002B02D06FF0AC
:10099000060328E07B689B6A002B07D07B689B6A74
:1009A0007A88114678689847F86007E07B8823F0DA
:1009B000F0031B051B0D9AB27B681A83FB68002BA2
:1009C00003D0FB6813F1060F0CD17B681B8B43F03F
:1009D00008039AB27B681A837B689B7E0133DAB284
:1009E0007B689A76FB6818461037BD4680BD00BF0D
:1009F000B80E010880B584B000AF78600023FB60BA
:100A00007B689B7E002B02D14FF0FF331FE07B6899
:100A10009B7E013BDAB27B689A767B689B7E002BDB
:100A200001D0002313E07B68DB6A002B04D07B68D5
:100A3000DB6A78689847F860FB68002B03D0FB6896
:100A400013F1060F02D17B6800221A83FB68184657
:100A50001037BD4680BD00BF90B585B000AFF860CF
:100A6000B9607A603B60FB689B7E002B05D14FF03C
:100A7000FF3000F0D9FA002311E0FB681B6B002B5C
:100A800008D0FB681C6B3B687A68B968F868A047B7
:100A9000034604E06FF0050000F0C6FA0023184694
:100AA0001437BD4690BD00BF90B585B000AFF8606B
:100AB000B9607A603B60FB689B7E002B05D14FF0EC
:100AC000FF3000F0B1FA002311E0FB685B6B002BF4
:100AD00008D0FB685C6B3B687A68B968F868A04727
:100AE000034604E06FF0050000F09EFA002318466C
:100AF0001437BD4690BD00BF80B483B000AF7860AE
:100B000039607B683A68DA61002318460C37BD46C5
:100B10005DF8047B704700BF80B483B000AF78609D
:100B20007B681B687A6852685A607B685B687A6881
:100B300012681A607B687A685A607B685A687B68BA
:100B40001A6000BF0C37BD465DF8047B704700BFDC
:100B500080B483B000AF084B7B607B681A687B6809
:100B60009A4214BF01230023DBB218460C37BD465E
:100B70005DF8047B704700BF380E002480B582B05A
:100B800000AF3BE0FFF7B6FB7860FFF7E1FF0346FD
:100B9000002B24D01D4B1B68143B3B603B68143377
:100BA0001846FFF7B9FF01F099FE3B681B6F002B59
:100BB00003D03B681B6F38689847386801F050FCD9
:100BC0000346012B08D1386801F0C0FB01F09CFE00
:100BD0007868FFF793FB16E001F096FE03E0786873
:100BE000FFF78CFB0FE07868FFF788FB3B689B6A98
:100BF000184601F0DFFA386801F00EFCFFF7A8FF95
:100C00000346002BBED10837BD4680BD380E0024F8
:100C100080B584B000AF78600023FB600DE00A4A25
:100C2000FB6852F82330002B04D0074AFB6852F8C7
:100C300023309847FB680133FB60FB68032BEED938
:100C4000FFF79CFFE8E700BF2009002480B588B0CB
:100C500004AF0023FB602AE03B1DFA6817491846E1
:100C600000F0C0FFFA6813461B019B1ADB00144A10
:100C70009818FB681B02134A1344391D2022039263
:100C80001F2202924FF480720192009300230E4AB9
:100C900001F050FFFA6813461B019B1ADB00084A5B
:100CA0001344184601F072FFFB680133FB60FB68D8
:100CB000002BD1D000BF1037BD4680BDF00E01081B
:100CC000A807002420080024110C000880B483B079
:100CD00000AF78607B687A685A607B685A687B6886
:100CE0001A6000BF0C37BD465DF8047B704700BF3B
:100CF00080B483B000AF786039607B685B683A6825
:100D00001A607B685A683B685A607B683A685A6028
:100D10003B687A681A6000BF0C37BD465DF8047BFB
:100D2000704700BF80B483B000AF78607B681A68FA
:100D30007B689A420CBF01230023DBB218460C37B4
:100D4000BD465DF8047B704780B582B000AF786027
:100D50007B6814331846FFF7B9FF0023184608379D
:100D6000BD4680BD80B586B000AFF860B96013465F
:100D7000FB71B86801F06AFFFB79002B02D0012BF0
:100D800007D031E0BB6814331946F868FFF7B0FFAD
:100D90002AE0FB681B687B6117E07B69143B3B61C1
:100DA000BB6893F835203B6993F835309A4209D2F5
:100DB0003B6903F11402BB68143319461046FFF770
:100DC00097FF06E07B691B687B617A69FB689A4242
:100DD000E3D17A69FB689A4205D1BB68143319469E
:100DE000F868FFF785FF00BF002318461837BD4697
:100DF00080BD00BF80B584B000AF78607B681B68A1
:100E0000143BFB60F86801F05DFF002318461037C3
:100E1000BD4680BD80B584B000AFF860B9607A602F
:100E2000FB70FB68BA680221184601F045FAFB68BE
:100E30001846FFF789FF7B689AB2FB689A83FB68C4
:100E4000FA785A72002318461037BD4680BD00BF9D
:100E500090B585B000AF786039602D4B1B68002BD2
:100E600004D02B4B1B687A6810469847FFF742FA6C
:100E700004467B689B8B002B09D07B689B8B013BD6
:100E80009AB27B689A832046FFF738FA32E03B68D3
:100E9000002B05D12046FFF731FA6FF0010333E054
:100EA00001F068FEF860FB6800221A637B6803F1BA
:100EB00014007B685B7A1A46F968FFF753FF3B68BA
:100EC000002B0BDDFB6844333A460021184602F044
:100ED0001BF9FB684433184602F012F82046FFF76E
:100EE0000DFA01F0C1FBFB681B6B002B02D0FB6805
:100EF0001B6B09E0074B1B68002B04D0054B1B68DC
:100F00007A6810469847002318461437BD4690BDAE
:100F1000280D0024240D0024B0B582B000AF786005
:100F2000164B1B68002B04D0144B1B687A681046C4
:100F300098470024FFF7DEF905467B68143318460E
:100F4000FFF7F0FE0346002B06D17B6814331846EA
:100F5000FFF750FF012405E07B689B8B01339AB2B9
:100F60007B689A832846FFF7C9F9012C01D101F06B
:100F70007BFB002318460837BD46B0BD200D00247A
:100F800080B582B000AFFFF7B5F978600A4B1B78E7
:100F9000DBB20133DAB2084B1A70084B1B68002B26
:100FA00002D0064B1B6898477868FFF7A7F900BF87
:100FB0000837BD4680BD00BF380900243009002431
:100FC00080B582B000AFFFF795F978600A4B1B78C7
:100FD000DBB2013BDAB2084B1A70084B1B68002BDE
:100FE00002D0064B1B6898477868FFF787F900BF67
:100FF0000837BD4680BD00BF3809002434090024ED
:1010000080B582B000AFFFF775F97860054B1B78AB
:10101000FB707868FFF772F9FB7818460837BD4611
:1010200080BD00BF3809002480B584B000AF78606F
:10103000FFF7E6FF0346002B03D00A4A7B681360E4
:101040000CE001F097FDF860FB68002B03D1054A26
:101050007B68136002E0FB687A681A631037BD464C
:1010600080BD00BF3C09002480B489B000AFF860A7
:10107000B9607A60FB68FB61BB68DBB27B617B684F
:10108000032B40D9FB6803F00303002B3BD1FB6823
:10109000BB617B691A027B6913433B613B691B049B
:1010A0003A6913433B6116E0BB691A1DBA613A699C
:1010B0001A60BB691A1DBA613A691A60BB691A1DC8
:1010C000BA613A691A60BB691A1DBA613A691A6055
:1010D0007B68103B7B607B680F2BE5D807E0BB6922
:1010E0001A1DBA613A691A607B68043B7B607B68B1
:1010F000032BF4D8BB69FB6105E0FB695A1CFA615C
:101100007A69D2B21A707B685A1E7A60002BF4D1C9
:10111000FB6818462437BD465DF8047B704700BF66
:1011200080B48BB000AFF860B9607A60FB687B6216
:10113000BB683B627B687B617B690F2B4DD93A6A48
:101140007B6A134303F00303002B46D17B6AFB61E8
:101150003B6ABB6122E0FB691A1DFA61BA69111D85
:10116000B96112681A60FB691A1DFA61BA69111D2A
:10117000B96112681A60FB691A1DFA61BA69111D1A
:10118000B96112681A60FB691A1DFA61BA69111D0A
:10119000B96112681A607B69103B7B617B690F2B18
:1011A000D9D80AE0FB691A1DFA61BA69111DB96143
:1011B00012681A607B69043B7B617B69032BF1D861
:1011C000FB697B62BB693B6207E07B6A5A1C7A62FF
:1011D0003A6A511C396212781A707B695A1E7A6118
:1011E000002BF2D1FB6818462C37BD465DF8047B16
:1011F000704700BF80B487B000AFF860B9607A6014
:10120000FB687B61BB683B613A697B699A4226D285
:101210003A697B681A447B699A4220D97A697B686B
:1012200013447B613A697B6813443B6109E07B6945
:10123000013B7B613B69013B3B613B691A787B6900
:101240001A707B685A1E7A60002BF0D10CE07B6923
:101250005A1C7A613A69511C396112781A707B689C
:101260005A1E7A60002BF2D1FB6818461C37BD4627
:101270005DF8047B704700BF80B489B000AFF860B0
:10128000B9607A6000237B61FB68FB61BB68BB616E
:1012900012E0FB691B781A46BB691B78D31A7B6185
:1012A0007B69002B0CD1FB690133FB61BB69013306
:1012B000BB617B68013B7B607B68002BE9D100E070
:1012C00000BF7B6918462437BD465DF8047B704734
:1012D00080B487B000AFF860B9607A607B68002B9B
:1012E00021D0FB687B61BB683B617B695A1C7A61DA
:1012F0003A69511C396112781A701B78002B0CD195
:1013000004E07B695A1C7A6100221A707B68013BF9
:101310007B607B68002BF4D105E07B68013B7B6040
:101320007B68002BE1D1FB6818461C37BD465DF891
:10133000047B704790B484B000AFF860B9607A6005
:10134000002413E0FB681A78BB68591CB9601B784D
:10135000D31ADBB25CB2002C0BD1FB685A1CFA60CA
:101360001B78002B05D07B68013B7B607B68002BE2
:10137000E8D1234618461037BD4690BC704700BFE1
:1013800080B485B000AF78607B68FB6002E0FB68EA
:101390000133FB60FB681B78002BF8D1FA687B688F
:1013A000D31A18461437BD465DF8047B704700BF5A
:1013B00080B582B002AF0A4800F066FC094800F030
:1013C00063FC094B0093032300220421074800F02B
:1013D0005BFC074800F058FC00BFBD4680BD00BF65
:1013E000F80E0108040F0108480F0108280F010832
:1013F000540F010880B485B000AF786039603B6855
:101400000A2B17D17B681B681946134BA3FB0123DA
:10141000DA0813469B0013445B00CA1AFA607B6823
:101420001B681A460C4BA3FB0223DB081A467B6899
:101430001A600AE07B681B6803F00F03FB607B689F
:101440001B681B091A467B681A60FB68184614372C
:10145000BD465DF8047B7047CDCCCCCC90B482B057
:1014600000AF786000240DE023469B0023445B001E
:1014700018467B681B68591C7A6811601B78034406
:10148000A3F130047B681B681B78303B092BEBD938
:10149000234618460837BD4690BC7047F0B58DB05E
:1014A00000AFF860B9607A603B60FB6CBB62BC6CFB
:1014B0003B6D03F04003002B01D06D4B00E06D4B02
:1014C0007B623B6D03F01003002B03D03B6D23F0D8
:1014D00001033B653B6D03F00103002B01D030237A
:1014E00000E0202387F82330002387F82F303B6D5E
:1014F00003F00203002B1AD07B68002B06DA2D23A1
:1015000087F82F307B685B427B6010E03B6D03F017
:101510000403002B03D02B2387F82F3007E03B6D0B
:1015200003F00803002B02D0202387F82F3000257A
:101530007B68002B19D12B465D1C07F13002134448
:10154000302203F8202C13E02E46751C3B1D396811
:101550001846FFF74FFF03461A467B6A13441A7872
:1015600007F13003334403F8202C7B68002BEBD1C8
:10157000FB6C9D4200DDFD64FB6CE41A3B6D03F0E7
:101580001103002B15D197F82F30002B0DD0002C14
:101590000BDD013C09E0FA68BB689A4202D2FB68A5
:1015A00020221A70FB680133FB6023465C1E002B6F
:1015B000F1DC97F82F30002B0BD0FA68BB689A4209
:1015C00003D2FB6897F82F201A70013CFB680133A7
:1015D000FB603B6D03F01003002B1AD10AE0FA68A0
:1015E000BB689A4203D2FB6897F823201A70FB6805
:1015F0000133FB6023465C1E002BF0DC09E0FA6837
:10160000BB689A4202D2FB6830221A70FB68013331
:10161000FB60FB6C5A1EFA64AB42F0DC0DE0FA682A
:10162000BB689A4206D207F130032B4413F8202CF2
:10163000FB681A70FB680133FB602B465D1E002BB4
:101640000DDDBB6A002BEAD109E0FA68BB689A425B
:1016500002D2FB6820221A70FB680133FB6023462C
:101660005C1E002BF1DCFB6818463437BD46F0BD2C
:10167000241B0108381B010880B592B004AFF86044
:10168000B9607A603B60FB68BB62FA68BB68134470
:101690007B627A6AFB689A4280F075824FF0FF3372
:1016A0007B627A6AFB68D31ABB606CE27B681B784A
:1016B000252B0BD0BA6A7B6A9A4203D27B681A78D0
:1016C000BB6A1A70BB6A0133BB6259E20023BB7765
:1016D0007B6801337B607B681B782D2B04D1BB7F3B
:1016E00043F01003BB77F3E77B681B782B2B04D107
:1016F000BB7F43F00403BB77EAE77B681B78202BB2
:1017000004D1BB7F43F00803BB77E1E77B681B781C
:10171000232B04D1BB7F43F02003BB77D8E77B6842
:101720001B78302B04D1BB7F43F00103BB77CFE79D
:1017300000BF4FF0FF33BB617B681B78303B092B48
:1017400005D83B1D1846FFF789FEB86115E07B6898
:101750001B782A2B11D17B6801337B603B681A1DF3
:101760003A601B68BB61BB69002B06DABB695B4250
:10177000BB61BB7F43F01003BB774FF0FF337B614E
:101780007B681B782E2B1ED17B6801337B607B68C6
:101790001B78303B092B05D83B1D1846FFF75EFE32
:1017A00078610BE07B681B782A2B07D17B680133BB
:1017B0007B603B681A1D3A601B687B617B69002B6C
:1017C00001DA00237B6100237B777B681B78682B21
:1017D00003D07B681B786C2B05D17B681B787B77EB
:1017E0007B6801337B600A23FB777B681B78253B92
:1017F000532B00F2708101A252F823F0A31A0008C3
:10180000D71A0008D71A0008D71A0008D71A0008F4
:10181000D71A0008D71A0008D71A0008D71A0008E4
:10182000D71A0008D71A0008D71A0008D71A0008D4
:10183000D71A0008D71A0008D71A0008D71A0008C4
:10184000D71A0008D71A0008D71A0008D71A0008B4
:10185000D71A0008D71A0008D71A0008D71A0008A4
:10186000D71A0008D71A0008D71A0008D71A000894
:10187000D71A0008D71A0008D71A0008D71A000884
:10188000D71A0008D71A0008D71A0008D71A000874
:10189000D71A0008D71A0008D71A0008D71A000864
:1018A000D71A0008D71A0008D71A0008D71A000854
:1018B000D71A0008D71A0008D71A0008D71A000844
:1018C000D71A0008D71A0008BF1A0008D71A00084C
:1018D000D71A0008D71A0008D71A0008D71A000824
:1018E000D71A0008D71A0008D71A0008D71A000814
:1018F000D71A00084D190008CD1A0008D71A000899
:10190000D71A0008D71A0008D71A0008CD1A0008FD
:10191000D71A0008D71A0008D71A0008D71A0008E3
:10192000D71A0008B91A00086B1A0008D71A00085D
:10193000D71A0008BB190008D71A0008131B0008A3
:10194000D71A0008D71A0008C71A0008BB7F03F08F
:101950001003002B10D109E0BA6A7B6A9A4202D2C6
:10196000BB6A20221A70BB6A0133BB62BB69013BB0
:10197000BB61BB69002BEFDC3B681A1D3A601B683A
:10198000FB74BA6A7B6A9A4202D2BB6AFA7C1A700A
:10199000BB6A0133BB6209E0BA6A7B6A9A4202D22F
:1019A000BB6A20221A70BB6A0133BB62BB69013B70
:1019B000BB61BB69002BEFDCE2E03B681A1D3A60BB
:1019C0001B683B623B6A002B01D17C4B3B62386A4F
:1019D000FFF7D6FC0346FB627B69002B05DDFA6A44
:1019E0007B699A4201DD7B69FB62BB7F03F01003D8
:1019F000002B10D109E0BA6A7B6A9A4202D2BB6A14
:101A000020221A70BB6A0133BB62BB695A1EBA61DD
:101A1000FA6A9342EFDC00233B6310E0BA6A7B6A08
:101A20009A4203D23B6A1A78BB6A1A70BB6A0133C6
:101A3000BB623B6A01333B623B6B01333B633A6BF6
:101A4000FB6A9A42EADB09E0BA6A7B6A9A4202D2EE
:101A5000BB6A20221A70BB6A0133BB62BB695A1E83
:101A6000BA61FA6A9342EFDC8AE0BB69B3F1FF3FE7
:101A700005D10823BB61BB7F43F00103BB773B6803
:101A80001A1D3A601B681A46BB7F02937B6901935B
:101A9000BB6900931023796AB86AFFF7FFFCB8624C
:101AA0006EE0BA6A7B6A9A4202D2BB6A25221A7039
:101AB000BB6A0133BB6263E00823FB772AE0BB7F8C
:101AC00043F04003BB771023FB7723E0BB7F43F059
:101AD0000203BB771DE0BA6A7B6A9A4202D2BB6AF4
:101AE00025221A70BB6A0133BB627B681B78002B0E
:101AF0000BD0BA6A7B6A9A4203D27B681A78BB6AB7
:101B00001A70BB6A0133BB623AE07B68013B7B60C1
:101B100036E000BF7B7F6C2B09D13B681A1D3A6011
:101B20001B687B63BB7F03F00203002B1AE07B7F03
:101B3000682B0ED13B681A1D3A601B689BB27B6311
:101B4000BB7F03F00203002B0CD07B6B1BB27B63CB
:101B500008E03B681A1D3A601B687B63BB7F03F09B
:101B60000203002B7A6BF97FBB7F02937B690193A1
:101B7000BB6900930B46796AB86AFFF78FFCB862BD
:101B80007B6801337B607B681B78002B7FF48EAD14
:101B9000BB68002B0BD0BA6A7B6A9A4203D2BB6A3D
:101BA00000221A7003E07B6A013B00221A70BA6AB5
:101BB000FB68D31A18463837BD4680BD800F010830
:101BC00080B584B000AFF860B9607A607B68BA68AD
:101BD0004FF0FF31F868FFF74FFD03461846103706
:101BE000BD4680BD0EB480B585B000AF786007F10A
:101BF0002003BB60BA68F9697868FFF7E1FFF86015
:101C0000FB6818461437BD46BDE8804003B07047F6
:101C100080B400AF034B1B681846BD465DF8047BDB
:101C2000704700BF4009002480B584B000AF7860E1
:101C30000F4B1B68FB607868FEF738FEB860BB6826
:101C4000002B0FD00A4B1B68002B04D0084B1B68DD
:101C50001846FEF7CFFE4321B868FEF763FE044A3C
:101C6000BB681360FB6818461037BD4680BD00BFD7
:101C70004009002480B483B000AF786000BF0C3707
:101C8000BD465DF8047B70470FB480B584B000AFEB
:101C900007F11C037B607B68BA697F211848FFF756
:101CA000EBFC0346FB60FB687F2B01D97F23FB60C5
:101CB000144B1B68002B03D11148FFF7DBFF17E023
:101CC000104B1B681B8B7B810E4B1B680D4A1268E7
:101CD000128B42F0400292B21A830A4B1868FB68DA
:101CE000074A0021FEF7E0FE064B1B687A891A833B
:101CF00000BF1037BD46BDE8804004B0704700BF4C
:101D0000440900244009002480B586B000AFF86083
:101D1000B9607A603B60FB68BA680721184600F03A
:101D2000CBFAFB687A685A613B6823F00302FB68D0
:101D30009A61FB689B69A3F13002FB68DA61FB687A
:101D40009A69FB68DB69D21AFB681A62FB682C335C
:101D50007B617B69354A1A607B69FA685A607B69E6
:101D600000229A607B690022DA607B697A691A61D5
:101D70007B697A695A61FB687A699A627B687B61E0
:101D80007B692A4A1A607B69FA685A607B6900227B
:101D90009A607B690022DA607B697A691A617B69E3
:101DA0007A695A61FB68DB6918337A691A447B697E
:101DB0009A607B699A687B69DA60FB687A695A6223
:101DC000FB689B6A1A697B691A61FB689A6A7B697E
:101DD0005A61FB689B6A1B697A695A61FB689B6A56
:101DE0007A691A617B699B687B617B69104A1A601A
:101DF0007B69FA685A607B697A689A607B697A685D
:101E0000DA607B6900225A617B695A697B691A61D1
:101E1000FB6803F1440000230122B968FEF7FAFFD2
:101E2000002318461837BD4680BD00BFA01EA01E67
:101E3000A11EA01E80B586B000AF786039603B68F7
:101E4000033323F003033B603B680B2B01D80C23C7
:101E50003B607B68DA693B689A4240F2C6800023A7
:101E60007B617B6844334FF0FF311846FEF7F0FF8B
:101E7000F860FB68002B04D0F868FFF7D5F8002362
:101E8000B4E07B689B6A1B693B610DE03B699B6822
:101E90001A463B69D31A183B7B617A693B689A42C0
:101EA00002D23B691B693B617B689A6A3B699A4233
:101EB00003D07A693B689A42E8D37A693B689A42D0
:101EC000C0F08E803B6803F124027B699A4253D8AC
:101ED0003B6818333A691344BB60BB68454A1A60D3
:101EE000BB687A685A60BB683A69DA603B699A688D
:101EF000BB689A603B699B68BA68DA603B69BA68FC
:101F00009A603B691B693A6952695A613B695B692E
:101F10003A6912691A613B6900221A613B69002221
:101F20005A617B689B6A1A69BB681A617B689A6A06
:101F3000BB685A617B689B6A1B69BA685A617B6897
:101F40009B6ABA681A617B68DA693B68D31AA3F1A5
:101F500018027B68DA617B689A697B68DB69D21A50
:101F60007B681B6A9A422DD97B689A697B68DB691A
:101F7000D21A7B681A6225E07B68DA697B69D21A1B
:101F80007B68DA617B689A697B68DB69D21A7B6857
:101F90001B6A9A4206D97B689A697B68DB69D21A08
:101FA0007B681A623B691B693A6952695A613B69ED
:101FB0005B693A6912691A613B6900221A613B69DF
:101FC00000225A613B691B6843F001023B691A60B9
:101FD0007B6844331846FEF79FFF3B69183305E0E2
:101FE0007B6844331846FEF797FF002318461837DE
:101FF000BD4680BDA01EA01E80B588B000AF786031
:102000007B68002B00F084800123BB6100237B618F
:102010007B68183BFB61FB695B683B613B69443350
:102020004FF0FF311846FEF713FFF860FB68002BF6
:1020300003D0F868FEF7F8FF6BE0FB691B6823F03C
:102040000102FB691A603B69DA69FB699B68194602
:10205000FB69CB1A1344A3F118023B69DA61FB69EF
:10206000DB681B6803F00103002B14D13B69DB69BB
:1020700003F118023B69DA61FB69DB68FA6992686F
:102080009A60FB699B68FA69D268DA60FB69DB6871
:10209000FB610023BB61FB699B681B6803F00103C4
:1020A000002B1AD13B69DB6903F118023B69DA6145
:1020B000FB699B687B617B699B68FA69DA607B6975
:1020C0009A68FB699A607B691B697A6952695A61EF
:1020D0007B695B697A6912691A61BB69002B11D04F
:1020E0003B699B6A1A69FB691A613B699A6AFB69D9
:1020F0005A613B699B6A1B69FA695A613B699B6A31
:10210000FA691A613B6944331846FEF705FF00E09F
:1021100000BF2037BD4680BD80B582B000AF78607B
:1021200039603A687B68D31A7A6804490448FFF733
:10213000EBFD00BF0837BD4680BD00BF880F01081A
:10214000C409002480B588B000AF78607968184869
:10215000FFF770FEF861FB69002B24D1072000F027
:1021600087F878617B695B68BB6115E0BB690C3BF4
:102170003B613B69FB60FB680D4A934208D079687C
:10218000F868FFF757FEF861FB69002B0AD100E001
:1021900000BFBB691B68BB617B691A1DBB699A42A2
:1021A000E4D100E000BFFB6918462037BD4680BD82
:1021B000C409002480B582B000AF78607868FFF76A
:1021C0001BFF00BF0837BD4680BD00BF80B584B08F
:1021D00000AF786039607B683A6802FB03F3FB600C
:1021E000F868FFF7AFFFB860BB68002B04D0FA684F
:1021F0000021B868FEF738FFBB6818461037BD46A7
:1022000080BD00BF80B483B000AF786039607B6868
:102210001B683A685A607B681A683B681A607B687A
:102220003A681A603B687A685A6000BF0C37BD464E
:102230005DF8047B704700BF80B483B000AF786066
:102240007B681B687A6852685A607B685B687A684A
:1022500012681A607B687A685A607B685A687B6883
:102260001A6000BF0C37BD465DF8047B704700BFA5
:1022700080B485B000AF0346FB710023FB600FE024
:102280000C4AFB681B0113441B78FA799A4204D16B
:10229000FB681B01074A134406E0FB680133FB603F
:1022A000FB68062BECDD002318461437BD465DF8AD
:1022B000047B70470000002490B589B000AFF8603F
:1022C0000B467A60FB720023FB61FB7A1846FFF72E
:1022D000CFFFB86100F002FBBB695B68FB6105E002
:1022E000FB690C3B7B61FB691B68FB61BB691A1DC9
:1022F000FB699A42F4D100F007FBFB7A63F07F039D
:10230000DAB2FB681A72FB68082279681846FEF791
:10231000DFFF0D4B1B68002B03D00B4B1B68F868CD
:102320009847FDF7E7FF0446BB691A1DFB680C33AD
:1023300019461046FFF766FF2046FDF7DFFF00BF96
:102340002437BD4690BD00BF280A002490B583B055
:1023500000AF78600C4B1B68002B03D00A4B1B6846
:10236000786898477B6800221A72FDF7C3FF04461D
:102370007B680C331846FFF75FFF2046FDF7BEFF72
:1023800000BF0C37BD4690BD2C0A002490B585B027
:1023900000AF03463960FB71FB791846FFF768FF11
:1023A000F860FB68DB681846FFF7CCFEB860BB68D6
:1023B000002B01D1002329E0FB68DB681A460021CD
:1023C000B868FEF751FEBB68FA791A72BB68002242
:1023D0005A72BB68082239681846FEF779FF0D4B20
:1023E0001B68002B03D00B4B1B68B8689847FDF7A0
:1023F00081FF0446FB681A1DBB680C331946104662
:10240000FFF700FF2046FDF779FFBB681846143739
:10241000BD4690BD280A002490B583B000AF786017
:102420000E4B1B68002B03D00C4B1B687868984739
:102430007B6800221A72FDF75DFF04467B680C334F
:102440001846FFF7F9FE2046FDF758FF7868FFF7BA
:10245000B1FE00BF0C37BD4690BD00BF2C0A002462
:1024600080B483B000AF78607B681B7A5BB2002BCE
:1024700001DA012300E0002318460C37BD465DF861
:10248000047B704780B483B000AF78607B687A6863
:102490005A607B685A687B681A6000BF0C37BD467B
:1024A0005DF8047B704700BF80B483B000AF7860F4
:1024B00039607B685B683A681A607B685A683B6879
:1024C0005A607B683A685A603B687A681A6000BF55
:1024D0000C37BD465DF8047B704700BF80B483B005
:1024E00000AF78607B681B687A6852685A607B68C6
:1024F0005B687A6812681A607B687A685A607B68E1
:102500005A687B681A6000BF0C37BD465DF8047BD3
:10251000704700BF80B483B000AF78607B681A68F2
:102520007B689A420CBF01230023DBB218460C37AC
:10253000BD465DF8047B704780B584B000AF78601D
:102540007B689B6A1B78232B11D17B68DB691A4659
:102550007B689B6A9A420AD97B68DB691A467B686A
:102560009B6A19467B68DB6A0B449A420ED97B68EA
:1025700019460F48FFF788FB01F08CFAFDF7BAFE09
:102580000346FB60FB68002BFCD10DE07B68DB6938
:102590001A467B689B6A20339A4205D87B681946A5
:1025A0000448FFF771FBFFE700BF1037BD4680BD51
:1025B000900F0108AC0F0108B0B582B000AF786091
:1025C000094B1B68184601F0E3F80346013B1C4623
:1025D000064B53F83430A3F114057B681C602B467E
:1025E00018460837BD46B0BD340E00242C0D00241B
:1025F00098B500AF0A4B00221A80002406E0E300E1
:10260000084A13441846FFF73DFF01341F2CF6DD3E
:10261000054B00221A600548FFF734FF00BF98BD44
:10262000300A00242C0D0024340E0024380E00241F
:1026300090B583B000AF3B1D1846FFF7BDFF0446C1
:10264000084B1C60204600F01DF9032384F8343049
:1026500004F11C031846FDF79AFE00BF0C37BD4677
:1026600090BD00BF300E002480B586B000AFFDF7EE
:1026700041FEF860584BB3F90030002B40F0A580C4
:10268000564B1B68002B00F0A08000233B613B1DD4
:102690001846FFF791FF7861514B1B6893F834306F
:1026A00003F00703032B2CD14D4B1B6893F83530F7
:1026B0001A467B689A4203D2494B1B687B6120E033
:1026C000474B1B6893F835301A467B689A420BD10A
:1026D000434B1B6893F8343003F00803002B03D1FD
:1026E0003F4B1B687B610CE03D4B1B683C4A12680A
:1026F00092F8342022F00802D2B283F83420012369
:102700003B61374B1B687A699A4249D07B68DAB2E1
:10271000344B1A70324B1B68BB60314A7B691360C3
:10272000314B1B68002B04D02F4B1B687969B868AC
:1027300098473B69002B02D0B86800F059F87869D7
:1027400000F0A0F87B6993F834305BB223F0070304
:102750005BB243F003035BB2DAB27B6983F83420E7
:102760007869FFF7E9FE214B1B78DBB2002B0DD116
:10277000BB681C331A467B691C3319461046FDF7AB
:10278000C0FDF868FDF7BAFD00BF22E0BB681C334E
:102790001A467B691C3319461046FDF7B2FD14E05A
:1027A0000F4B1B68184600F06DF80D4B1B680C4A68
:1027B000126892F8342052B222F0070252B242F06C
:1027C000030252B2D2B283F83420F868FDF796FDC6
:1027D00000BF1837BD4680BD300A0024340E0024E7
:1027E000300E00242C0E0024340A00243809002462
:1027F00090B583B000AF7860FDF77CFD04461E4BBA
:102800001B687A689A420ED17B6893F834305BB2C9
:1028100023F007035BB243F003035BB2DAB27B68D9
:1028200083F8342020E07B6893F834305BB223F0E7
:1028300007035BB243F001035BB2DAB27B6883F853
:1028400034207B6893F83530DB000C4A1A447B68EF
:10285000143319461046FFF727FE7B689A6B084B26
:102860001B681343064A13602046FDF747FD00BF6F
:102870000C37BD4690BD00BF300E00242C0D002447
:10288000340E002490B583B000AF7860FDF732FDC0
:1028900004467B6814331846FFF720FE7B6893F8E4
:1028A0003530DB000B4A13441846FFF733FE03466E
:1028B000002B07D07B689B6BDA43074B1B681340E8
:1028C000054A13602046FDF719FD00BF0C37BD46D1
:1028D00090BD00BF2C0D0024340E002498B500AF2D
:1028E000FDF708FD0446074BB3F900309BB20133F6
:1028F0009BB21AB2034B1A802046FDF7FFFC00BFC3
:1029000098BD00BF300A002498B500AFFDF7F2FC77
:102910000446104BB3F900309BB2013B9BB21AB294
:102920000C4B1A800B4BB3F90030002B0CDC094B1D
:1029300000221A802046FDF7E1FC074B1B68002BA4
:1029400005D0FFF791FE02E02046FDF7D7FC00BF5F
:1029500098BD00BF300A0024300E002480B483B03C
:1029600000AF78607B687A685A607B685A687B68D9
:102970001A6000BF0C37BD465DF8047B704700BF8E
:1029800080B483B000AF786039607B681B683A68B8
:102990005A607B681A683B681A607B683A681A60FC
:1029A0003B687A685A6000BF0C37BD465DF8047B0F
:1029B000704700BF80B483B000AF78607B681B684D
:1029C0007A6852685A607B685B687A6812681A6035
:1029D0007B687A685A607B685A687B681A6000BFB7
:1029E0000C37BD465DF8047B704700BF90B583B0DF
:1029F00000AF00F0BFF87860FDF77CFC0446786813
:102A0000FFF740FF7B68042283F834207B6844335F
:102A1000184600F05FFA7868FFF722FD0346012BA5
:102A200007D17B681B6F002B03D17868FFF78EFC02
:102A300005E07B68143319460548FFF7A1FFFFF74F
:102A400013FE2046FDF75AFC00BF0C37BD4690BD73
:102A5000380E002480B586B002AFF860B9607A60A5
:102A60003B60FB6814331846FFF778FFFB687A6811
:102A70001A62FB683A685A62FB68BA699A62FB6834
:102A8000FA69DA62FB68986AFB68DB6A1A462321F6
:102A9000FEF7EAFAFB68186AFB68596AFB689A6AEB
:102AA000FB68DB6A043B1A441F4B00F0FBFB024649
:102AB000FB68DA61FB6897F8202083F83620FB6812
:102AC00097F8202083F83520FB6800229A63FB6882
:102AD0007A6ADA63FB687A6A1A64FB6800221A630E
:102AE000FB68002283F83420FB6800221A67FB6829
:102AF00000225A67FB6803F14400F9680023019340
:102B000000230093FB68094A00F0CCF9084B1B68CE
:102B1000002B03D0064B1B68F86898470023184623
:102B20001037BD4680BD00BFED290008252D0008E7
:102B3000400A002480B588B004AFF860B9607A60BC
:102B40003B60BA680121F868FFF7B6FB7B6A039324
:102B500097F820300293FB690193BB6900933B68AF
:102B60007A68B968F868FFF775FF034618461037AA
:102B7000BD4680BD80B400AF034B1B681846BD4600
:102B80005DF8047B704700BF300E002480B582B032
:102B900000AF78607B6893F836207B6883F8352037
:102BA0007B6893F835301A46012393401A467B68B8
:102BB0009A637B68022283F83420786800F082F8F8
:102BC000FFF7D8FF0346002B01D0FFF74DFD002390
:102BD00018460837BD4680BD80B58AB004AFF8609E
:102BE000B9607A603B60F9680120FFF7CFFB78613C
:102BF0007B69002B01D100231BE03868FFF7A2FAA4
:102C000038613B69002B04D17869FFF705FC00238C
:102C10000FE07B6A039397F8203002933B6801939F
:102C20003B6900937B68BA68F9687869FFF712FF1F
:102C30007B6918461837BD4680BD00BF80B500AF20
:102C4000FFF712FD0023184680BD00BF90B583B08A
:102C500000AF78607B6893F8343003F00704012CF0
:102C600004D0032C02D04FF0FF3324E0FDF742FBE9
:102C700004467868FFF706FE7B6893F834305BB251
:102C800023F007035BB243F002035BB2DAB27B6866
:102C900083F834207B684433184600F007FA204656
:102CA000FDF72CFB064B1B68002B03D0044B1B6865
:102CB00078689847002318460C37BD4690BD00BF82
:102CC000380A002490B583B000AF78607B6893F831
:102CD000343003F00703022B02D04FF0FF331BE028
:102CE000FDF708FB04467B6814331846FFF762FEC5
:102CF0007B684433184600F0D9F92046FDF7FEFA08
:102D00007868FFF775FD064B1B68002B03D0044B5A
:102D10001B6878689847002318460C37BD4690BD5D
:102D20003C0A002480B584B000AF78607B68FB600B
:102D3000FB686FF001021A63FB6814331846FFF753
:102D400039FEF868FFF754FDFFF78EFC00BF10371F
:102D5000BD4680BD80B483B000AF78607B687A6880
:102D60005A607B685A687B681A6000BF0C37BD46A2
:102D70005DF8047B704700BF80B483B000AF78601B
:102D800039607B681B683A685A607B681A683B68E0
:102D90001A607B683A681A603B687A685A6000BFBC
:102DA0000C37BD465DF8047B704700BF80B483B02C
:102DB00000AF78607B681B687A6852685A607B68ED
:102DC0005B687A6812681A607B687A685A607B6808
:102DD0005A687B681A6000BF0C37BD465DF8047BFB
:102DE000704700BF80B483B000AF78607B681A681A
:102DF0007B689A420CBF01230023DBB218460C37D4
:102E0000BD465DF8047B704780B586B000AFF860C2
:102E1000B9607A603B60FB6897F820205A72FB68C3
:102E20005B7A23F00103DAB2FB685A72FB68BA6876
:102E3000DA61FB687A681A62FB6800229A62FB68B2
:102E40003A685A6200237B610BE07B690233DB0046
:102E5000FA68134404331846FFF77CFF7B6901339B
:102E60007B617B69002BF0DD00BF1837BD4680BD5C
:102E700080B584B000AF78600023FB600BE0FB6896
:102E80000233DB007A68134404331846FFF78EFFE1
:102E9000FB680133FB60FB68002BF0DD00BF1037DF
:102EA000BD4680BD80B586B002AFF860B9607A607B
:102EB0003B60BA680A21F868FFF7FEF93B7F009390
:102EC000BB693A687968F868FFF79EFF00BF103762
:102ED000BD4680BD90B583B000AF7860FDF70AFABB
:102EE00004467868FFF7C4FF2046FDF707FA7868C4
:102EF000FFF72CFA002318460C37BD4690BD00BFE3
:102F000090B589B000AF7860FDF7F4F904467868B1
:102F1000FFF7AEFF7B685B7A23F00103DAB27B68D0
:102F20005A722046FDF7EAF95C4B1B68002B04D06F
:102F30005A4B1B687A6810469847FDF705FC024615
:102F40007B685B6A1A447B689A62FDF7D3F9044692
:102F5000534B7B617B69BB600023FB6155E0FB69E0
:102F60009B0007F12002134453F8183C1B683B6197
:102F7000FB69DB0014335B423A691344FB60FB6876
:102F80009A6A7B689B6A9A4208D0FB689A6A7B6857
:102F90009B6AD31A434A93421FD900E000BFFB69E2
:102FA0009B0007F12002134453F8183C1A68FB6990
:102FB0009B0007F120010B4443F8182CFB699B0090
:102FC00007F12002134453F8182CFB69DB007969E0
:102FD0000B445B689A42C2D100E000BFFB69002B42
:102FE00010D0FB69591CFB699B0007F120021344B8
:102FF00053F8183C03F108028B0007F120010B4441
:1030000043F8182CFB690133FB61FB69002BD5D019
:10301000254B1B680133244A1360234B1B68BB619B
:10302000BA687B68143319461046FFF7A5FE0223E1
:10303000FB611EE0BB6903F00303002B1DD1FB699C
:10304000C3F101039B0007F12002134453F8180C4D
:10305000FB69C3F101030233DB007A6813440433D4
:103060001946FFF789FEBB699B08BB61FB69013309
:10307000FB61FB69012BDDD900E000BF7B685B7A57
:1030800043F00103DAB27B685A722046FDF736F945
:10309000002318462437BD4690BD00BF240D0024F0
:1030A000440A0024FEFFFF7F540A002490B583B039
:1030B00000AF78607B685B7A03F00103002B02D1DC
:1030C0004FF0FF3319E00F4B1B68002B04D00D4B62
:1030D0001B687A6810469847FDF70CF90446786833
:1030E000FFF7C6FE2046FDF709F97B685B7A23F0FF
:1030F0000103DAB27B685A72002318460C37BD46CA
:1031000090BD00BF200D002480B485B000AFF860F2
:10311000B9607A60BB68042B34D801A252F823F05E
:103120003F310008353100084931000859310008A5
:1031300069310008FB685A6A7B681A6022E07B6884
:103140001A68FB685A621DE0FB685B7A23F0020391
:10315000DAB2FB685A7215E0FB685B7A43F002034F
:10316000DAB2FB685A720DE0FB685B7A03F0010388
:10317000002B03D07B6801221A6002E07B680022EA
:103180001A6000BF002318461437BD465DF8047B63
:10319000704700BF90B583B000AFFDF7D5FA7860F7
:1031A000FDF7A8F8044644E0294B1B68143B3B603C
:1031B0003B689B6A7A68D31A264A934240D8264BCA
:1031C0001B68002B03D0244B1B683868984738686D
:1031D000FFF74EFE3B68DB693A68126A1046984773
:1031E000FDF7B2FA78601D4B1B68002B03D01B4B18
:1031F0001B68386898473B685B7A03F00203002B32
:1032000010D03B685B7A03F00103002B0AD03B68C7
:103210005B7A23F00103DAB23B685A723868FFF731
:103220006FFE06E03B685B7A23F00103DAB23B688D
:103230005A720748FFF7D6FD0346002BB4D000E0D2
:1032400000BF2046FDF75AF800BF0C37BD4690BDC1
:10325000440A0024FEFFFF7F4C0A0024500A002489
:1032600080B582B000AF00237B6009E07B68DB00A3
:10327000074A13441846FFF76DFD7B6801337B60F6
:103280007B68002BF2D000BF0837BD4680BD00BF71
:10329000440A002480B400AF00BFBD465DF8047B43
:1032A000704700BF80B489B000AFF860B9607A6041
:1032B0003B607B680433BB61BB6923F00703BB61E0
:1032C000BB69443BBB61BB697B610023FB6108E0D8
:1032D000FB699B007A691344154A1A60FB69013344
:1032E000FB61FB69102BF3D9BA687B695A627B6971
:1032F00000229A627B690022DA627B6900221A63EB
:103300007B6900225A633A687B699A63FA687B6931
:10331000DA637B694FF080721A647B6900221A605D
:10332000BB6918462437BD465DF8047B704700BF73
:10333000EFBEADDE80B500AF2548FEF7A5FC254BFE
:103340001B889BB219462448FEF79EFC214B1B8824
:103350009BB203F00103002B02D02048FEF794FC3F
:103360001C4B1B889BB203F00203002B02D01C48AD
:10337000FEF78AFC174B1B889BB203F00403002B5B
:1033800002D01848FEF780FC124B1B889BB203F05A
:103390000803002B02D01448FEF776FC0D4B1B8867
:1033A0009BB203F48073002B02D01048FEF76CFC34
:1033B000084B1B889BB203F40073002B02D00C480F
:1033C000FEF762FC0B48FEF75FFC00BF80BD00BF4C
:1033D000E40F01082AED00E0F40F01080C100108C9
:1033E00018100108241001082C10010834100108DD
:1033F000401001084C10010880B500AF2648FEF7C8
:1034000043FC264B1B78DBB219462548FEF73CFCF3
:10341000224B1B78DBB203F00103002B02D02148C2
:10342000FEF732FC1D4B1B78DBB203F00203002BCE
:1034300002D01D48FEF728FC184B1B78DBB203F0C6
:103440000403002B02D01948FEF71EFC134B1B7817
:10345000DBB203F00803002B02D01548FEF714FC82
:103460000E4B1B78DBB203F01003002B02D0114887
:10347000FEF70AFC094B1B78DBB25BB2002B06DAC5
:103480000D4B1B6819460D48FEF7FEFB02E00C4889
:10349000FEF7FAFB00BF80BD5010010829ED00E0E7
:1034A0005C10010874100108801001088C100108DC
:1034B0009C100108A810010838ED00E0B0100108C8
:1034C0004C10010880B500AF2148FEF7DDFB214B11
:1034D0001B78DBB219462048FEF7D6FB1D4B1B7844
:1034E000DBB203F00103002B02D01C48FEF7CCFB3B
:1034F000184B1B78DBB203F00203002B02D01848F4
:10350000FEF7C2FB134B1B78DBB203F00803002B62
:1035100002D01448FEF7B8FB0E4B1B78DBB203F069
:103520001003002B02D01048FEF7AEFB094B1B78AE
:10353000DBB25BB2002B06DA0C4B1B6819460C4859
:10354000FEF7A2FB02E00B48FEF79EFB00BF80BD2A
:10355000C010010828ED00E0D4100108EC100108AB
:10356000F8100108041101081011010834ED00E001
:103570001C1101084C10010880B500AF164B1B68E8
:1035800003F00203002B02D01448FEF77DFB124B20
:103590001B6803F08043002B14D0114B1B78DBB267
:1035A000002B01D0FFF728FF0E4B1B78DBB2002B5E
:1035B00001D0FFF787FF0C4B1B889BB2002B01D07B
:1035C000FFF7B8FE044B1B68002B02DA0748FEF732
:1035D0005BFB00BF80BD00BF2CED00E02C1101089B
:1035E00029ED00E028ED00E02AED00E0441101089B
:1035F00080B586B000AF78607B6828337B617B68DC
:1036000004333B61474B1B68002B07D0454B1B68BD
:1036100078699847F860FB68002B7ED03B691B6C8B
:1036200019464148FEF730FB3B695B6A19463F4843
:10363000FEF72AFB3B699B6A19463D48FEF724FBCF
:103640003B69DB6A19463B48FEF71EFB3B691B6B77
:1036500019463948FEF718FB3B695B68194637483D
:10366000FEF712FB3B699B6819463548FEF70CFBD9
:103670003B69DB6819463348FEF706FB3B691B696B
:1036800019463148FEF700FB3B695B6919462F4834
:10369000FEF7FAFA3B699B6919462D48FEF7F4FAE2
:1036A0003B69DB6919462B48FEF7EEFA3B691B6A5A
:1036B00019462948FEF7E8FA3B695B6B194627482B
:1036C000FEF7E2FA3B699B6B19462548FEF7DCFAE8
:1036D0003B69DB6B19462348FEF7D6FA7B681B680B
:1036E00003F00403002B09D0FFF744FA0346194600
:1036F0001D48FEF7C9FA00F0CDF902E01B48FEF7BD
:10370000C3FA7B681B6803F01003002B02D1184832
:10371000FEF7BAFAFFF730FFFEE700BF1837BD46E5
:1037200080BD00BF580A002454110108641101082B
:10373000741101088411010894110108A4110108F1
:10374000B4110108C4110108D4110108E4110108E1
:10375000F4110108041201081412010824120108CE
:1037600034120108441201085412010874120108AD
:103770009012010880B400AF034B044A1A6000BFE6
:10378000BD465DF8047B70470CED00E00400FA05CF
:1037900080B483B000AF78607B6893FAA3F3B3FA88
:1037A00083F37A68002A01D14FF0FF3301331846C2
:1037B0000C37BD465DF8047B704700BF80B485B010
:1037C00000AF78600023FB600123BB6002E07B68F0
:1037D00001337B607B681B78202BF8D07B681B78DB
:1037E000093B042BF3D97B681B782B2B04D02D2BA2
:1037F00005D14FF0FF33BB607B6801337B600DE088
:10380000FA6813469B0013445B001A467B681B78DA
:103810001344303BFB607B6801337B607B681B7823
:10382000303B092BECD9BB68B3F1FF3F02D1FB68F9
:103830005B4200E0FB6818461437BD465DF8047B28
:10384000704700BF80B582B000AF78607868FEF73F
:1038500079FC034618460837BD4680BD80B584B064
:1038600000AFF860B9607A607A68B968F868FDF707
:103870002FFD034618461037BD4680BD90B484B076
:1038800000AFF860B9607A60002413E0FB681A7832
:10389000BB68591CB9601B78D31ADBB25CB2002C30
:1038A0000BD1FB685A1CFA601B78002B05D07B6893
:1038B000013B7B607B68002BE8D12346184610371C
:1038C000BD4690BC704700BF80B483B000AF786045
:1038D0007B681A687B689A420CBF01230023DBB225
:1038E00018460C37BD465DF8047B704780B485B040
:1038F00000AF78600023FB607B68BB6005E0BB68BD
:103900001B68BB60FB680133FB60BB681A687B689F
:103910009A42F4D1FB6818461437BD465DF8047B23
:10392000704700BF80B500AF0248FEF7ADF9002335
:10393000184680BDB012010880B500AF0248FEF7FE
:10394000A3F90023184680BDC412010880B500AF5A
:10395000FDF72EFD0023184680BD00BF80B582B064
:1039600000AF786002E00648FEF78EF97B685A1EC9
:103970007A60002BF7D100BF0837BD4680BD00BF7D
:10398000CC12010880B586B000AFF8607A603B6069
:103990000B46FB72FB7A1846FEF76AFC78617B697E
:1039A00004333B61FB683A691A60FB68FA7A1A7261
:1039B000FB687A685A60FB683A68DA60FB68002244
:1039C0001A6100BF1837BD4680BD00BF80B58AB000
:1039D00000AF7860396000237B623B6800221A6187
:1039E0003B68DB68002B03D03B681B7A002B01D1BE
:1039F00000234AE03B681B687B617B68002B04D195
:103A00007B693B6201237B6201E07B683B62FCF7E0
:103A100071FC03463B617B6A002B10D13B6A0C3B77
:103A2000FB60FB681B7A23F080033A68127A9342AA
:103A300005D03B691846FCF761FC002325E0002314
:103A4000BB613B685B68FB613B6A1B683B623A6A2F
:103A50007B699A4202D100233B620EE0BB690133CD
:103A6000BB61FB691A1DFA613A6A1A603B68DA6841
:103A7000BB699A4200D0E7E700BF3B691846FCF7F4
:103A80003DFC3B68BA691A613B6A18462837BD4657
:103A900080BD00BF90B5B7B002AF0023C7F8CC30EF
:103AA000744BC7F8C03007F1780207F1980008237B
:103AB0000121FFF767FF0823C7F8BC30D7F8C02003
:103AC000D7F8BC106C48FEF7DFF8D7F8BC00FFF75A
:103AD00045FF6A48FEF7D8F807F198031946D7F86A
:103AE000CC00FFF773FFC7F8CC000023C7F8C8303D
:103AF000AFE0D7F8C8309B0007F1D002134453F869
:103B0000583C0C3BC7F8B830FCF7F4FB0346C7F849
:103B1000B430D7F8B8301B7A23F0800397F8A02090
:103B2000934205D0D7F8B4301846FCF7E7FB8BE09A
:103B30003B467822D7F8B8101846FDF7F1FAD7F8C7
:103B4000B4301846FCF7DAFBD7F8B830C7F8B03015
:103B5000D7F8B020D7F8B03093F83530009313463B
:103B60000822D7F8BC104648FEF78EF8D7F8B030D8
:103B700093F8343003F0070387F8AF3097F8AF308D
:103B8000012B03D13F48FEF77FF81EE097F8AF30D6
:103B9000022B03D13C48FEF777F816E097F8AF30D8
:103BA000002B03D13948FEF76FF80EE097F8AF30DD
:103BB000042B03D13648FEF767F806E097F8AF30DC
:103BC000032B02D13348FEF75FF8D7F8B0309B6A79
:103BD000C7F8C43004E0D7F8C4300133C7F8C430A4
:103BE000D7F8C4301B78232BF5D0D7F8B030DA6A79
:103BF000D7F8B0309B6A1946D7F8B030DB69CB1ADA
:103C0000D118D7F8B030D86AD7F8B030DA6AD7F818
:103C1000B0309B6A1C46D7F8C430E31A13446422C0
:103C200002FB03F2D7F8B030DB6AB2FBF3F4D7F84B
:103C3000B0301B6CD7F8B020126B01920093234672
:103C400002461548FEF720F8D7F8C8300133C7F808
:103C5000C830D7F8A820D7F8C8309A423FF749AF04
:103C6000D7F8CC30002B7FF437AF00231846D43779
:103C7000BD4690BDD0120108D81201081C130108DE
:103C80005C1301086813010874130108801301080C
:103C90008C13010898130108A413010880B584B09F
:103CA00000AF78607B681B68FB6012E0FB68143B28
:103CB000BB60BB6819460B48FDF7E6FFFB681A6856
:103CC0007B689A4202D00848FDF7DEFFFB681B685C
:103CD000FB60FA687B689A42E8D100BF1037BD46A6
:103CE00080BD00BFCC130108D0130108B0B596B059
:103CF00002AF0023FB64424B7B643A4607F120008D
:103D000008230221FFF73EFE08233B647A6C396CDE
:103D10003C48FDF7B9FF386CFFF720FE3A48FDF745
:103D2000B3FF07F120031946F86CFFF74FFEF86464
:103D30000023BB6457E0BB6C9B0007F150021344A7
:103D400053F8503C0C3BFB63FCF7D4FA0346BB63CF
:103D5000FB6B1B7A23F0800397F82820934204D052
:103D6000BB6B1846FCF7CAFA3AE0BB6B1846FCF787
:103D7000C5FAFB6B7B637B6B14331846FFF7A4FD1E
:103D80000346002B1AD17C6B7B6B9B8B1D467B6B98
:103D900014331846FFF7AAFD034601930095234606
:103DA0000822396C1948FDF76FFF7B6B14331846F6
:103DB000FFF774FF1648FDF767FF11E07C6B7B6B24
:103DC0009B8B1D467B6B14331846FFF78FFD034614
:103DD0000193009523460822396C0E48FDF754FFE5
:103DE000BB6C0133BB643A6BBB6C9A42A3DCFB6CCB
:103DF000002B96D1002318465037BD46B0BD00BFFA
:103E0000D4130108E0130108FC130108141401087D
:103E10002414010828140108F0B599B004AF002358
:103E2000FB64334B7B643A4607F1200008230321EF
:103E3000FFF7A8FD08233B647A6C396C2D48FDF729
:103E400023FF386CFFF78AFD2B48FDF71DFF07F1B4
:103E500020031946F86CFFF7B9FDF8640023BB6432
:103E60003AE0BB6C9B0007F15002134453F8503CFE
:103E70000C3BFB63FCF73EFA0346BB63FB6B1B7A10
:103E800023F0800397F82820934204D0BB6B184698
:103E9000FCF734FA1DE0BB6B1846FCF72FFAFB6BFE
:103EA0007B637C6B7B6B1B6A1D467B6BDB7F1E46DB
:103EB0007B6B14331846FFF719FD034603930296F4
:103EC00001950823009323460822396C0B48FDF71F
:103ED000DBFEBB6C0133BB643A6BBB6C9A42C0DC4B
:103EE000FB6C002BB3D1002318465437BD46F0BD00
:103EF00038140108401401086414010884140108EE
:103F000080B598B004AF0023FB642F4B7B643A4626
:103F100007F1200008230721FFF734FD08233B6445
:103F20007A6C396C2948FDF7AFFE386CFFF716FD47
:103F30002748FDF7A9FE07F120031946F86CFFF7A3
:103F400045FDF8640023BB6432E0BB6C9B0007F1C5
:103F50005002134453F8503C0C3BFB63FCF7CAF986
:103F60000346BB63FB6B1B7A23F0800397F8282082
:103F7000934204D0BB6B1846FCF7C0F915E0BB6B4D
:103F80001846FCF7BBF9FB6B7B63786B7B6B9B691B
:103F90007A6B126A796BC9690291019200930346A8
:103FA0000822396C0B48FDF76FFEBB6C0133BB6414
:103FB0003A6BBB6C9A42C8DCFB6C002BBBD1002374
:103FC00018465037BD4680BD9C140108A414010852
:103FD000D41401080015010890B59BB004AF00236C
:103FE0007B65484B7B643A4607F120000823082193
:103FF000FFF7C8FC08233B647A6C396C4248FDF734
:1040000043FE386CFFF7AAFC4048FDF73DFE07F180
:1040100020031946786DFFF7D9FC786500233B65CE
:1040200064E03B6D9B0007F15802134453F8583C81
:104030000C3BFB63FCF75EF90346BB63FB6B1B7A2F
:1040400023F0800397F82820934204D0BB6B1846D6
:10405000FCF754F947E0BB6B1846FCF74FF9FB6BD4
:104060007B630023FB647B6BDB6ABB6405E0FB6C5A
:104070000133FB64BB6C1B68BB647B6B03F12C02DC
:10408000BB6C9A42F3D1FB6C002B1ADD7C6B7B6B13
:10409000DB697A6B526A796B896AF86C03900291DA
:1040A0000192009323460822396C1948FDF7ECFD74
:1040B0007B6B2C331846FFF7F1FD1648FDF7E4FD46
:1040C00011E07C6B7B6BDB697A6B526A796B896A76
:1040D000F86C039002910192009323460822396CF8
:1040E0000D48FDF7D1FD3B6D01333B653A6B3B6DF0
:1040F0009A4296DC7B6D002B89D1002318465C37F1
:10410000BD4690BD1C150108241501084C15010879
:1041100070150108241401088C15010880B596B0AB
:1041200002AF0023FB64384B7B643A4607F1200062
:1041300008230A21FFF726FC08233B647A6C396CBC
:104140003248FDF7A1FD386CFFF708FC3048FDF759
:104150009BFD07F120031946F86CFFF737FCF86464
:104160000023BB643CE0BB6C9B0007F1500213448E
:1041700053F8503C0C3BFB63FCF7BCF80346BB63B5
:10418000FB6B1B7A23F0800397F82820934204D01E
:10419000BB6B1846FCF7B2F81FE0BB6B1846FCF788
:1041A000ADF8FB6B7B63796B7B6B5B6A7A6B926AB6
:1041B000019200930B460822396C1648FDF764FD06
:1041C0007B6B5B7A03F00103002B03D01248FDF7F1
:1041D0005BFD02E01148FDF757FDBB6C0133BB648A
:1041E0003A6BBB6C9A42BEDCFB6C002BB1D1FCF786
:1041F000ABFA034619460A48FDF746FD0023184668
:104200005037BD4680BD00BFA8150108B015010894
:10421000D8150108FC15010814160108201601081C
:104220003016010880B596B002AF0023FB64334B13
:104230007B643A4607F1200008230921FFF7A2FB1F
:1042400008233B647A6C396C2D48FDF71DFD386CF2
:10425000FFF784FB2B48FDF717FD07F120031946F4
:10426000F86CFFF7B3FBF8640023BB6439E0BB6C68
:104270009B0007F15002134453F8503C0C3BFB6386
:10428000FCF738F80346BB63FB6B1B7A23F0800313
:1042900097F82820934204D0BB6B1846FCF72EF801
:1042A0001CE0BB6B1846FCF729F8FB6B7B63796B52
:1042B0007B6B1B7D152B06D87B6B1B7D1A46124B27
:1042C00053F8223000E0114B7A6B927E01920093FA
:1042D0000B460822396C0E48FDF7D6FCBB6C013347
:1042E000BB643A6BBB6C9A42C1DCFB6C002BB4D153
:1042F000002318465037BD4680BD00BF8417010813
:104300008C170108B4170108681E01087C17010802
:10431000D817010880B582B000AF1448FDF7B4FC8F
:10432000134B1B687B6016E07B681B6802221149F7
:104330001846FFF7A3FA0346002B08D07B681968DC
:104340007B685B681A460C48FDF79EFC00E000BFE6
:104350007B680C337B60094B1B687A689A42E3D315
:10436000002318460837BD4680BD00BFEC17010882
:104370005C0A00240018010804180108600A0024DF
:1043800080B400AF01231846BD465DF8047B70473A
:1043900080B584B000AF786039601648FDF774FCD2
:1043A000154B1B68FB6017E0FB681B68062213496E
:1043B0001846FFF763FA0346002B09D1FB681B6818
:1043C000991DFB685B681A460D48FDF75DFC00E02F
:1043D00000BFFB680C33FB600A4B1B68FA689A420B
:1043E000E2D30948FDF750FC002318461037BD46BC
:1043F00080BD00BF141801085C0A002430180108B1
:1044000038180108600A00244418010880B582B0F9
:1044100000AF78603960FFF73DFB0023184608378E
:10442000BD4680BD80B582B000AF78603960FFF7CF
:1044300067FD002318460837BD4680BD80B588B0AB
:1044400000AFF860B9607A60FB68FB610023BB6174
:1044500000237B6194E0FB6900221A70FB69013341
:10446000FB61BB690133BB61FB691B78202B03D067
:10447000FB691B78092B03D1BA69BB689A42EAD35E
:104480007B69092B19D94648FDF7FEFB00233B61E8
:104490000BE03B699B007A6813441B68194641484E
:1044A000FDF7F2FB3B6901333B613A697B699A4254
:1044B000EFD33D48FDF7E8FB6DE0BA69BB689A426F
:1044C00064D2FB691B78222B3AD1FB690133FB6173
:1044D000BB690133BB617B699B007A681344FA694D
:1044E0001A607B6901337B6114E0FB691B785C2BEC
:1044F0000AD1FB6901331B78222B05D1FB690133FB
:10450000FB61BB690133BB61FB690133FB61BB69C3
:104510000133BB61FB691B78222B03D0BA69BB68EE
:104520009A42E2D3BA69BB689A4231D2FB6900224F
:104530001A70FB690133FB61BB690133BB611FE08A
:104540007B699B007A681344FA691A607B690133BE
:104550007B6105E0FB690133FB61BB690133BB6132
:10456000FB691B78202B07D0FB691B78092B03D034
:10457000BA69BB689A42EDD3BA69BB689A4209D25C
:10458000BA69BB689A42FFF46FAF04E000BF02E073
:1045900000BF00E000BF7B6918462037BD4680BDE4
:1045A00048180108681801084418010880B584B04B
:1045B00000AF786039600023BB60194B1B68FB605B
:1045C00024E0FB681B68062216491846FFF756F9D7
:1045D0000346002B16D1FB681B6806333A687968DE
:1045E0001846FFF74BF90346002B0CD1FB681B68FC
:1045F0003A68063213441B78002B04D1FB689B6891
:10460000BB6008E000BFFB680C33FB60064B1B6817
:10461000FA689A42D5D3BB6818461037BD4680BDAC
:104620005C0A002430180108600A002480B592B0AA
:1046300000AFF860B9607A6000237B6402E07B6CB5
:1046400001337B64FA687B6C13441B78202B09D000
:10465000FA687B6C13441B78092B03D07A6CBB6817
:104660009A42ECD37B6C002B02D14FF0FF332AE04F
:104670007B6C1946F868FFF799FF38643B6C002B98
:1046800002D14FF0FF331EE007F11403282200216E
:104690001846FCF7E9FC07F114031A46B968F868F4
:1046A000FFF7CCFEF863FB6B002B02D14FF0FF331A
:1046B00009E007F114023B6C1146F86B984702467B
:1046C0007B681A60002318464837BD4680BD00BF8E
:1046D00080B584B000AF7860396005E07B68013355
:1046E0007B603B68013B3B607B681B78202BF5D0EF
:1046F0007B681B78092BF1D03B68002B01D100238C
:1047000022E007F108031A4639687868FFF78EFF40
:104710000346002B01D1BB6816E07B68FB6002E01A
:10472000FB680133FB60FB681B78202B03D0FB6820
:104730001B78002BF4D1FB6800221A7079680448BA
:10474000FDF7A2FA4FF0FF3318461037BD4680BD83
:104750006C18010880B485B000AF786039607B6860
:10476000FB6005E0FB680133FB603B6801333B60A5
:10477000FB681B78002B09D03B681B78002B05D009
:10478000FB681A783B681B789A42EBD0FA687B6822
:10479000D31A18461437BD465DF8047B704700BF36
:1047A00080B588B000AF78600023FB610023BB6157
:1047B0007B681B78002B04D100210020FFF7E8FD67
:1047C0004BE0274B1B687B6137E07B691B68062247
:1047D00024491846FFF752F80346002B29D17B697C
:1047E0001B6806333B617868FCF7CAFD03461A462E
:1047F00039697868FFF742F80346002B1AD1FB6944
:10480000002B06D13B69BB61B869FCF7B9FD0346D3
:10481000FB613969B869FFF79DFFF860FA68FB69C9
:104820009A4201DAFB68FB6139690F48FDF72CFAFF
:1048300000E000BF7B690C337B610C4B1B687A691D
:104840009A42C2D3BB69002B06D0FB691A46B969EC
:104850007868FCF73DFD00BF00BF2037BD4680BD36
:104860005C0A00243018010884180108600A00243A
:1048700080B500AF204B1B6893F8213003F0020392
:10488000DBB2002B04D11D4B00221A701B4B30E011
:104890001B4B1B68002B08D0194B1B688022194644
:1048A0001648FEF7DBFF154B23E0FFF769FD0346D3
:1048B000002B07D0114B134A92E803001860043311
:1048C000197009E00D4B104A92E803001860043398
:1048D000198002330A0C1A700848FCF751FD034690
:1048E0001A46064B134409491A460B461B88138087
:1048F000024B184680BD00BF4C0E0024700A0024F5
:104900006C0A0024881801089018010898180108FA
:1049100080B483B000AF7860094B1A687B68DBB263
:1049200003F00103D9B292F8213061F3410382F818
:10493000213000BF0C37BD465DF8047B704700BFD7
:104940004C0E002480B582B000AF0023FB7106E05E
:104950000C4B1B684FF0FF311846FCF779FA094BF6
:104960001B68D3F80C02FA1D01234FF0FF31FCF74E
:1049700073F80346012BEBD1FB7918460837BD4687
:1049800080BD00BF4C0E002480B582B000AF7860BF
:104990003960054B1B681846FCF7BEFA0023184621
:1049A0000837BD4680BD00BF4C0E002480B584B0E2
:1049B00000AF78600023FB607868FBF777FFF86052
:1049C000FB68002B04D179682448FDF75DF942E0CB
:1049D000234B1B68D3F80C22FB689A423AD040F272
:1049E0004311F868FBF79EFF0346002B33D11C4BA5
:1049F0001B68D3F80C32002B0ED0194B1B68D3F870
:104A00000C321846FBF7F6FF154B1B68D3F80C3237
:104A100000211846FCF770F8114B1B6803F5DB7397
:104A2000502200211846FCF71FFB0D4B1A680C4B57
:104A30001B680021A3F80612B3F80632A2F8083268
:104A4000074B1B68FA68C3F80C220649F868FCF7A4
:104A500053F800E000BF1037BD4680BD9C18010828
:104A60004C0E00248949000880B582B000AF786000
:104A70000B48FDF709F9FFF783FC0346012B02D130
:104A80007868FFF78DFEFFF7F3FE03467A68194654
:104A90000448FDF7F9F800BF0837BD4680BD00BFE8
:104AA000BC180108C018010880B582B000AF78605A
:104AB0000848FDF7E9F8FFF7DBFE01467B6803F5E0
:104AC000DB731A460448FDF7DFF800231846083761
:104AD000BD4680BDC8180108C018010880B584B063
:104AE00000AF78607B68B3F80632002B00F09D8041
:104AF0007B689B8C042B51D97B6803F5B3707B6872
:104B000003F5DB7350221946FCF7B6FB0346002B76
:104B100000F08B800023FB6019E0FA6813469B00CD
:104B200013441B0120337A681344981DFB685A1CF8
:104B300013469B0013441B0120337A681344063349
:104B400050221946FCF7ECFAFB680133FB60FB6866
:104B5000032BE2DDFA6813469B0013441B0120334C
:104B60007A6813440633502200211846FCF77CFA79
:104B7000FA6813469B0013441B0120337A681344E0
:104B8000981D7B6803F5DB717B68B3F806321A4623
:104B9000FCF7C6FA7B6805229A8446E07B689B8C0A
:104BA000002B14D07B689B8C5A1E13469B00134429
:104BB0001B0120337A681344981D7B6803F5DB736F
:104BC00050221946FCF758FB0346002B2DD07B687A
:104BD0009A8C7B685A847B689B8C1A4613469B0090
:104BE00013441B0120337A681344063350220021FA
:104BF0001846FCF739FA7B689B8C1A4613469B00D3
:104C000013441B0120337A681344981D7B6803F515
:104C1000DB717B68B3F806321A46FCF781FA7B68D1
:104C20009B8C01339AB27B689A847B689A8C7B68F0
:104C30005A8400BF1037BD4680BD00BFB0B588B0F4
:104C400000AF7860A84B1A6892F8213043F0010356
:104C500082F82130A44B1B68D3F80C32002B09D109
:104C6000FCF7D6FF38613B69002B03D03B6918463F
:104C7000FFF79CFEFFF7FCFD03461846FDF704F81E
:104C8000FFF760FEF860FB68002BC0F2B282FB68A1
:104C90001B2B05D1944B1B68012283F82020B3E223
:104CA000914B1B6893F82030012B0ED1FB685B2BD6
:104CB00005D18D4B1B68022283F82020A4E28A4B89
:104CC0001B68002283F82020D6E0874B1B6893F8EE
:104CD0002030022B40F0D080834B1B68002283F8E9
:104CE0002020FB68412B3DD17F4B1B685B8C002B48
:104CF00033D07D4B1B685A8C013A92B25A847A4B5E
:104D00001B6803F5DB70784B1A68774B1B685B8C6C
:104D100019460B469B000B441B01203313440633FA
:104D200050221946FCF7FCF96F4B1D686E4B1C684E
:104D30006D4B1B6803F5DB731846FCF721FB03463C
:104D40009BB2A4F80632B4F80632A5F80832664BD6
:104D50001B681846FFF7A8FE56E2634B1B6800224B
:104D60005A8451E2FB68422B4CD15F4B1B685B8C31
:104D70001A465D4B1B689B8C013B9A4206DA5A4BE4
:104D80001B685A8C013292B25A840DE0564B1B6854
:104D90009B8C002B00F02F82534B1B68524A1268E9
:104DA000928C013A92B25A844F4B1B6803F5DB7028
:104DB0004D4B1A684C4B1B685B8C19460B469B008D
:104DC0000B441B0120331344063350221946FCF7D1
:104DD000A7F9454B1D68444B1C68434B1B6803F502
:104DE000DB731846FCF7CCFA03469BB2A4F80632F4
:104DF000B4F80632A5F808323B4B1B681846FFF79B
:104E000053FE01E2FB68442B12D1374B1B68B3F809
:104E10000832002B00F0F1813448FCF735FF324BAB
:104E20001B68B3F80822013A92B2A3F80822E4E121
:104E3000FB68432B20D12C4B1B68B3F808222A4B6C
:104E40001B68B3F806329A4280F0D981264B1B6862
:104E5000254A1268B2F80822134493F8B63119466D
:104E60002348FCF711FF204B1B68B3F808220132DE
:104E700092B2A3F80822C2E1FB68002B00F0C181C6
:104E8000FB68FF2B00F0BD81FB68092B32D10023AA
:104E9000FB6105E01548FCF7F7FEFB690133FB6198
:104EA000114B1B68B3F808321A46FB699A42F1DCD1
:104EB0000D4B1B6803F5DB731846FFF7D5FD0A4B56
:104EC0001D68094B1C68084B1B6803F5DB7318460B
:104ED000FCF756FA03469BB2A4F80632B4F8063241
:104EE000A5F8083290E100BF4C0E0024D01801084C
:104EF000D4180108FB687F2B02D0FB68082B7DD1FA
:104F0000974B1B68B3F80832002B00F07C81944B60
:104F10001B68B3F80622013A92B2A3F80622904B1E
:104F20001B68B3F80822013A92B2A3F808228C4B0E
:104F30001B68B3F806228A4B1B68B3F808329A4202
:104F40004ED9874B1A68864B1B68B3F8083203F5B5
:104F5000D8731344981D824B1A68814B1B68B3F8B1
:104F60000832013303F5D8731344991D7C4B1B6839
:104F7000B3F806321A467A4B1B68B3F80832D31AD4
:104F80001A46FCF737F9764B1B68754A1268B2F877
:104F900006221344002283F8B621714B1A68704B25
:104FA0001B68B3F8083203F5D87313440633194667
:104FB0006C48FCF769FE6A4B1B68B3F80832BB61AA
:104FC00005E06948FCF760FEBB690133BB61644BD7
:104FD0001B68B3F806321A46BB699A42F1DA13E14C
:104FE0006248FCF751FE5E4B1B685D4A1268B2F8DE
:104FF00006221344002283F8B62105E1FB680D2B3D
:1050000002D0FB680A2B3CD1554B1B681846FFF7B2
:1050100065FDFFF7B5F90346012B17D1504B1B680F
:1050200093F8213003F00103DBB2002B02D050488B
:10503000FCF72AFE4A4B1B6803F5DB72484B1B68E2
:10504000B3F8063219461046FFF742FBFFF710FC93
:1050500003461846FCF718FE414B1B6803F5DB734B
:10506000502200211846FBF7FFFF3D4B1A683C4BCE
:105070001B680021A3F80612B3F80632A2F8083222
:10508000C2E0374B1B68B3F806324F2B04D9344BC0
:105090001B680022A3F80622314B1B68B3F80822D4
:1050A0002F4B1B68B3F806329A4265D22C4B1A6814
:1050B0002B4B1B68B3F80832013303F5D873134444
:1050C000981D274B1A68264B1B68B3F8083203F566
:1050D000D8731344991D224B1B68B3F806321A4645
:1050E0001F4B1B68B3F80832D31A1A46FCF782F834
:1050F0001B4B1B681A4A1268B2F808221146FA685C
:10510000D2B20B4483F8B621154B1B6893F82130BB
:1051100003F00103DBB2002B0DD0114B1A68104BCA
:105120001B68B3F8083203F5D873134406331946E5
:105130001048FCF7A9FD0A4B1B68B3F808327B61E5
:1051400005E00948FCF7A0FD7B6901337B61044B56
:105150001B68B3F806321A467B699A42F1DC24E0F8
:105160004C0E0024D8180108D0180108E0180108D6
:10517000BC180108E4180108244B1B68234A126874
:10518000B2F806221146FA68D2B20B4483F8B6216F
:105190001E4B1B6893F8213003F00103DBB2002B98
:1051A00003D0F9681A48FCF76FFD0023FB60174B2A
:1051B0001B68B3F80622013292B2A3F80622134B01
:1051C0001B68B3F80822013292B2A3F808220F4BF1
:1051D0001B68B3F806324F2B7FF652AD0B4B1B68A2
:1051E0000022A3F80622094B1B680022A3F808221C
:1051F00046E500BF44E500BF42E500BF40E500BF13
:105200003EE500BF3CE500BF3AE500BF4C0E002480
:10521000D418010880B483B000AF78603960064AC2
:105220007B681360054A3B68136000BF0C37BD46BE
:105230005DF8047B704700BF5C0A0024600A00240C
:1052400080B483B000AF78603960064A7B68136031
:10525000054A3B68136000BF0C37BD465DF8047B10
:10526000704700BF640A0024680A002480B584B037
:1052700002AF00237B601F491F48FFF7CBFF1F4988
:105280001F48FFF7DDFF4FF404710120FCF79EFF7C
:1052900002461C4B1A601B4B1B68002B05D11A4899
:1052A000FCF7F2FC4FF0FF3320E00A2301931423B4
:1052B00000934FF48053002214491548FDF78CFCED
:1052C0003860104B1B681846002300221149FBF779
:1052D000A1FD0120FFF71CFB3B68002B05D07B687C
:1052E000002B02D13868FDF751FC0023184608371F
:1052F000BD4680BDA022010850210108A02201085E
:10530000A02201084C0E0024E81801083D4C0008BA
:10531000001901080819010880B483B000AF786053
:105320007B687A685A607B685A687B681A6000BF3D
:105330000C37BD465DF8047B704700BF80B483B076
:1053400000AF786039607B685B683A681A607B6898
:105350005A683B685A607B683A685A603B687A686A
:105360001A6000BF0C37BD465DF8047B704700BF74
:1053700080B483B000AF78607B681A687B689A421B
:105380000CBF01230023DBB218460C37BD465DF885
:10539000047B704780B584B000AF7860FAF7AAFF4D
:1053A000F8607B6800221A607B6804331846FFF7B8
:1053B000B3FFF868FAF7A2FF00BF1037BD4680BD03
:1053C00080B586B000AF7860396000237B61FDF75F
:1053D000D1FBF860FAF78EFF38617B681B68012B00
:1053E0002ED03B68002B03D16FF001037B612AE0D4
:1053F000FB6800221A63F868FDF728FC7B681A1D19
:10540000FB68143319461046FFF798FF3B68002BE2
:105410000BDDFB6844333A4600211846FDF774FE65
:10542000FB6844331846FDF76BFD3869FAF766FFF1
:10543000FDF71AF9FB681B6B7B61FAF75BFF3861BC
:105440007B6800221A603869FAF758FF7B691846B2
:105450001837BD4680BD00BF80B584B000AF78600E
:105460007B681B68012B1ED0FAF744FFF8607B684D
:1054700001221A607B6804331846FFF779FF034660
:10548000002B0CD17B685B68143BBB60B868FDF7F0
:1054900019FCF868FAF732FFFDF7E6F804E0F8685F
:1054A000FAF72CFF00E000BF1037BD4680BD00BFFB
:1054B00080B483B000AF78607B687A685A607B689C
:1054C0005A687B681A6000BF0C37BD465DF8047BE4
:1054D000704700BF80B483B000AF786039607B68EC
:1054E0005B683A681A607B685A683B685A607B68F8
:1054F0003A685A603B687A681A6000BF0C37BD464C
:105500005DF8047B704700BF80B483B000AF786063
:105510007B681A687B689A420CBF01230023DBB2C8
:1055200018460C37BD465DF8047B704780B584B0E3
:1055300000AFF8607B600B467B8113463B81FB68C4
:105540007A685A62FB68164A1A60FB687A899A8000
:10555000FB683A89DA80FB6800229A81FB680022A6
:10556000DA81FB6814331846FFF7A2FFFB681C338F
:105570001846FFF79DFF7B89DB001846FCF7E2FD2C
:105580000246FB681A61FB681B69002B02D16FF0B1
:10559000040300E0002318461037BD4680BD00BF5D
:1055A0000E0EADBE80B588B000AFF860B9607A600D
:1055B0003B600023BB61FDF7DDFA7861FAF79AFEE4
:1055C0000346FB6134E03B68002B03D16FF001031D
:1055D000BB6175E07B6900221A637869FDF736FBD1
:1055E000FB6803F114027B69143319461046FFF778
:1055F00071FF3B68002B0BDD7B6944333A46002189
:105600001846FDF781FD7B6944331846FDF778FCA9
:10561000FB691846FAF772FEFDF726F87B691B6BEB
:10562000BB61FAF767FE0346FB61BB69002B46D1FD
:10563000FB68DB891A46FB689B89D31AFA68928853
:105640009342C0D0FB681969FB68DB89FA689288CD
:10565000B3FBF2F002FB00F29B1A9BB2DB000B449F
:10566000BA681A60FB681969FB68DB89FA68928876
:10567000B3FBF2F002FB00F29B1A9BB2DB000B447F
:105680007A685A60FB68DB8901339AB2FB68DA8179
:10569000FB681C331846FFF737FF0346002B0FD17A
:1056A000FB68DB69143B7B617869FDF70BFBFB69E9
:1056B0001846FAF723FEFCF7D7FFBB6911E000BFDD
:1056C000FB691846FAF71AFEBB69002B08D1FB6884
:1056D0005B6A002B04D0FB685B6A0221F86898477C
:1056E000BB6918462037BD4680BD00BF80B588B075
:1056F00000AFF860B9607A603B600023BB61FDF7E2
:1057000039FA7861FAF7F6FD0346FB6134E03B684D
:10571000002B03D16FF00103BB618BE07B6900229A
:105720001A637869FDF792FAFB6803F11C027B6942
:10573000143319461046FFF7CDFE3B68002B0BDDF6
:105740007B6944333A4600211846FDF7DDFC7B694E
:1057500044331846FDF7D4FBFB691846FAF7CEFD33
:10576000FCF782FF7B691B6BBB61FAF7C3FD034645
:10577000FB61BB69002B5CD1FB689A89FB68DB8904
:105780009A42C4D0FB681969FB689B89FA689288C1
:10579000B3FBF2F002FB00F29B1A9BB2DB000B445E
:1057A0001A68BB681A60FB681969FB689B89FA680C
:1057B0009288B3FBF2F002FB00F29B1A9BB2DB0073
:1057C0000B445A687B681A60FB689B8901339AB264
:1057D000FB689A81FB68DB891A46FB689B89D31AB0
:1057E000FA68D288934225DCFB6814331846FFF729
:1057F0008BFE0346002B0DD1FB685B69143B7B617C
:105800007869FDF75FFAFB691846FAF777FDFCF750
:105810002BFF03E0FB691846FAF770FDFB685B6A33
:10582000002B04D0FB685B6A0321F8689847BB69CA
:1058300011E000BFFB691846FAF760FDBB69002B59
:1058400008D1FB685B6A002B04D0FB685B6A01210E
:10585000F8689847BB6918462037BD4680BD00BF31
:1058600080B586B000AFF860B9607A60FAF742FDA3
:1058700003467B61FB689A89FB68DB899A4206D103
:105880007B691846FAF73AFD6FF0030326E0FB68E0
:105890001969FB689B89FA689288B3FBF2F002FBF6
:1058A00000F29B1A9BB2DB000B441A68BB681A60BB
:1058B000FB681969FB689B89FA689288B3FBF2F070
:1058C00002FB00F29B1A9BB2DB000B445A687B6818
:1058D0001A607B691846FAF711FD0023184618373D
:1058E000BD4680BD90B585B000AF7860FCF7F6FF8F
:1058F00012E0FAF7FFFC03461C467B68DB69143BA9
:10590000FB60FB684FF0FF321A63F868FDF7DAF9C5
:1059100023461846FAF7F2FC7B681C331846FFF75B
:10592000F3FD0346002BE4D012E0FAF7E3FC034654
:105930001C467B685B69143BFB60FB684FF0FF32E1
:105940001A63F868FDF7BEF923461846FAF7D6FC45
:105950007B6814331846FFF7D7FD0346002BE4D0CD
:10596000FCF7D2FFFCF780FE00BF1437BD4690BDA8
:1059700080B584B000AF7860FAF7BCFC0346FB60EA
:105980007868FFF7AFFF7B6800221A607B681B69AD
:105990001846FCF70FFCFB681846FAF7AFFC00232B
:1059A00018461037BD4680BD80B586B000AFF860A0
:1059B000B9607A607B687B6116E0FB681B6CDB6812
:1059C000F868984738613B69B3F1FF3F10D03B69F5
:1059D000DAB2BB681A70BB680133BB607B68013BFD
:1059E0007B603B690A2B05D07B68002BE5D102E088
:1059F00000BF00E000BF7A697B68D31A18461837E9
:105A0000BD4680BD80B586B000AFF860B9607A60F1
:105A10007B687B611DE0BB681B780A2B0BD1FB68A0
:105A20001B8B03F04003002B05D0FB681B6C9B68AD
:105A30000D21F8689847FB681B6C9B68BA68127860
:105A40001146F8689847BB680133BB607B68013B2F
:105A50007B607B68002BDED17A697B68D31A18469D
:105A60001837BD4680BD00BF80B588B000AFF86074
:105A7000B9607A607B68FB61FB68DB6CBB613DE011
:105A8000FAF738FC7861BB69DA88BB699B889A426F
:105A900007D1BB699B68002B03D17869FAF72EFC0C
:105AA0002FE0BB691B68BA69D28813441B783B613D
:105AB000BB69DB8801339AB2BB69DA80BB69DA88DB
:105AC000FB689B6CC3F38F239BB29A4202D3BB69E2
:105AD0000022DA80BB699B68012B02D1BB690022DE
