:0200000490006A
:10000000E80C0024FD8E0090498F0090D9030090E9
:10001000498F0090498F0090498F009000000000A8
:10002000000000000000000000000000498F009068
:10003000498F00900000000023030090311D0090C4
:10004000498F0090498F0090498F0090498F009010
:10005000498F0090498F0090F13000900931009055
:10006000213100903931009051310090498F00903A
:10007000498F0090498F0090498F0090498F0090E0
:10008000498F0090498F0090498F0090498F0090D0
:10009000498F0090498F0090498F009069310090FE
:1000A000498F0090498F0090498F0090498F0090B0
:1000B000498F0090498F0090498F0090498F0090A0
:1000C000498F0090498F0090498F0090498F009090
:1000D000498F0090ED270090498F009009280090EB
:1000E0009D310090498F009000000000498F0090E2
:1000F000498F0090498F0090498F0090498F009060
:10010000498F0090F5420090498F0090498F0090F0
:100110002528009041280090498F0090498F009039
:10012000498F0090498F0090498F0090498F00902F
:10013000498F0090454C0090498F0090498F009066
:1001400000000000000000000000000000000000AF
:10015000498F0090498F0090498F0090498F0090FF
:10016000498F0090498F0090498F0090498F0090EF
:10017000498F0090498F0090498F0090498F0090DF
:10018000498F0090498F0090498F0090498F0090CF
:10019000498F0090498F0090498F0090498F0090BF
:1001A000498F0090498F0090498F0090498F0090AF
:1001B000498F0090498F0090498F0090498F00909F
:1001C000498F0090498F0090498F0090498F00908F
:1001D000498F0090498F0090498F0090498F00907F
:1001E000498F0090498F0090498F0090498F00906F
:1001F000498F0090498F0090498F0090498F00905F
:10020000498F0090498F0090498F0090498F00904E
:10021000498F0090498F0090498F0090498F00903E
:10022000498F0090498F0090498F00900000000096
:1002300015430090498F009000000000498F009006
:10024000498F0090498F0090498F0090498F00900E
:10025000498F0090498F0090498F0090498F0090FE
:10026000498F0090498F0090498F0090498F0090EE
:10027000498F0090498F0090498F00900000000046
:10028000498F0090498F0090498F00900000000036
:1002900000000000498F009010B5054C237833B959
:1002A000044B13B10448AFF300800123237010BD49
:1002B000000D002400000000D4100A90084B10B577
:1002C0001BB108490848AFF300800848036803B928
:1002D00010BD074B002BFBD0BDE81040184700BFF6
:1002E00000000000040D0024D4100A90E80A002445
:1002F00000000000EFF3108072B6704780F31088A2
:100300007047444A1368012B04D04FF00103136077
:10031000414A1060414A116041484FF080510160EC
:100320007047EFF3108272B63A48016851B34FF04C
:10033000000101603848016891B1EFF309811EF0B6
:10034000100F08BF21ED108B21E9F00F4FF00004D2
:100350001EF0100F08BF012441F8044D0068016031
:100360002E490968096808C9B1E8F00F002B18BFC9
:10037000B1EC108B81F309884EF0100E002B18BFE2
:100380002EF0100E82F310884EF0040E70472349B1
:100390000860EFF3148222F0040282F314881E49ED
:1003A0004FF0000008601B494FF0010008601D4835
:1003B0001D49D0F8002041EA0201016018484FF0C1
:1003C0008051016019480068006800BF80F3088808
:1003D00061B662B6704700BFEFF308801EF0040FED
:1003E00001D0EFF3098020E9F00F40F804ED40F868
:1003F00004ED1EF0040F02D080F3098801E080F3C1
:10040000088800B526F0EAFA5DF804EB4EF0040E19
:1004100070470000C0910024C8910024C4910024BA
:1004200004ED00E020ED00E00000FFFF08ED00E03B
:10043000844641EA000313F003036DD1403A41D3EF
:1004400051F8043B40F8043B51F8043B40F8043BAE
:1004500051F8043B40F8043B51F8043B40F8043B9E
:1004600051F8043B40F8043B51F8043B40F8043B8E
:1004700051F8043B40F8043B51F8043B40F8043B7E
:1004800051F8043B40F8043B51F8043B40F8043B6E
:1004900051F8043B40F8043B51F8043B40F8043B5E
:1004A00051F8043B40F8043B51F8043B40F8043B4E
:1004B00051F8043B40F8043B51F8043B40F8043B3E
:1004C000403ABDD2303211D351F8043B40F8043BDE
:1004D00051F8043B40F8043B51F8043B40F8043B1E
:1004E00051F8043B40F8043B103AEDD20C3205D3EE
:1004F00051F8043B40F8043B043AF9D2043208D0E6
:10050000D2071CBF11F8013B00F8013B01D30B8857
:1005100003806046704700BF082A13D38B078DD035
:1005200010F003038AD0C3F10403D21ADB071CBF07
:1005300011F8013B00F8013B80D331F8023B20F871
:10054000023B7BE7043AD9D3013A11F8013B00F8AA
:10055000013BF9D20B7803704B7843708B78837032
:10056000604670470000000000000000000000002E
:10057000000000000000000000000000000000007B
:10058000A2EB0300704700BF02780B78012A28BF56
:100590009A42F5D16DE9044540EA0104CDE90267CC
:1005A0006FF0000C4FEA447212B380EA010414F0B9
:1005B000070F6AD100F0070420F0070004F00305DC
:1005C00021F007014FEAC505F0E8042314F0040FF9
:1005D000F1E804670CFA05F462EA040266EA04062C
:1005E0000AD063EA0403624667EA0407664603E04A
:1005F000F0E80423F1E8046782FA4CF582EA060485
:10060000A4FA8CF46CBB83FA4CF583EA0705A5FACF
:100610008CF595B950E9022351E9026782FA4CF54D
:1006200082EA0604A4FA8CF483FA4CF583EA0705FF
:10063000A5FA8CF52543DBD09CB92DBAB5FA85F423
:1006400024F0070427FA04F1DDE9026723FA04F332
:1006500003F0FF0001F0FF01FDE80445A0EB0100FD
:10066000704724BAB4FA84F424F0070426FA04F19B
:10067000DDE9026722FA04F202F0FF0001F0FF0157
:10068000FDE80445A0EB0100704714F0030F3CD1D6
:1006900010F0030428D150F8082B51F8083B82FAD7
:1006A0004CF582EA0305A5FA8CF55DB950F8042CE7
:1006B00051F8043C82FA4CF582EA0305A5FA8CF560
:1006C000002DE8D02DBAB5FA85F424F0070423FAFA
:1006D00004F122FA04F202F0FF0001F0FF01FDE84C
:1006E0000445A0EB010070474FEAC40420F003006A
:1006F00050F8082B21F0030151F8083B0CFA04F4E0
:1007000062EA040263EA0403C9E710F003041AD0A2
:10071000A1EB040120F00300E40750F8042B06D0FD
:100720000FD28B785FFAA2F4E41A06D12BB1CB7802
:100730005FFAB2F4E41A00D11BB920465DF8104B01
:10074000704701F1040150F8042BCC0721F003019C
:1007500051F8043B48D824D222F07F4482FA4CF569
:1007600094EA1325A5FA8CF50AD165B951F8043B32
:1007700084EA0204B4EB036F0ED150F8042BEBE7CC
:100780004FEA132355E035F07F454DD10878FDE859
:100790000445C0F1000070474FEA126203F0FF0306
:1007A00047E002EA1C4482FA4CF594EA1345A5FAA4
:1007B0008CF50AD165B951F8043B84EA0204B4EB24
:1007C000034F0CD150F8042BEBE74FEA134330E012
:1007D00015EA1C4528D10B884FEA124229E04FEA5E
:1007E000124203EA1C4324E002F0FF0482FA4CF5B3
:1007F00094EA1365A5FA8CF50AD165B951F8043B62
:1008000084EA0204B4EB032F09D150F8042BEBE780
:100810004FEA13630DE015F0FF0F05D10B684FEAA7
:10082000122223F07F4304E04FF00000FDE804456E
:10083000704712BA1BBA82FA4CF482EA0304A4FA93
:100840008CF5B5FA85F402FA04F203FA04F34FEAE0
:100850001260FDE80445A0EB136070470000000043
:100860000000000000000000000000000000000088
:100870000000000000000000000000000000000078
:1008800090F800F06DE9024520F007016FF0000CD0
:1008900010F0070491F820F040F049804FF0000478
:1008A0006FF00700D1E9002391F840F000F1080053
:1008B00082FA4CF2A4FA8CF283FA4CF3A2FA8CF38B
:1008C0004BBBD1E9022382FA4CF200F10800A4FAF2
:1008D0008CF283FA4CF3A2FA8CF3E3B9D1E9042346
:1008E00082FA4CF200F10800A4FA8CF283FA4CF37D
:1008F000A2FA8CF37BB9D1E9062301F1200182FA37
:100900004CF200F10800A4FA8CF283FA4CF3A2FA3C
:100910008CF3002BC6D0002A04BF04301A4612BA4A
:10092000B2FA82F2FDE8024500EBD2007047D1E94D
:10093000002304F00305C4F100004FEAC50514F0DC
:10094000040F91F840F00CFA05F562EA05021CBFAD
:1009500063EA050362464FF00004A9E700000000C7
:1009600001F0FF01102A2BDB10F0070F08D010F860
:10097000013B013A8B422DD010F0070F42B3F6D164
:10098000F0B441EA012141EA014122F007047FF07D
:1009900000070023F0E80256083C85EA010586EAD4
:1009A000010685FA47F5A3FA87F586FA47F6A5FA10
:1009B00087F68EB9EED1F0BC01F0FF0102F007021C
:1009C00032B110F8013B013A83EA010313B1F8D1C7
:1009D0000020704701387047002D06BF35460338A8
:1009E000073815F0010F07D1013015F4807F02BFE1
:1009F000013015F4C03F0130F0BC0138704700BF32
:100A000053B94AB9002908BF00281CBF4FF0FF3175
:100A10004FF0FF3000F092B9ADF1080C6DE904CE53
:100A200000F01AF8DDF804E0DDE9022304B07047B5
:100A3000430803F05533C01A830803F0333300F042
:100A40003330184400EB101000F00F3000EB0020A2
:100A500000EB0040000E70472DE9F0478C460E4633
:100A60000446089D002B50D18A4217466CD9B2FA31
:100A700082FEBEF1000F0BD0CEF1200420FA04F468
:100A800001FA0EF644EA060C02FA0EF700FA0EF42A
:100A90004FEA1749220CBCFBF9F01FFA87F809FB53
:100AA00010C642EA064600FB08F3B34209D9F6191C
:100AB00000F1FF3280F02281B34240F21F81023800
:100AC0003E44F61AA2B2B6FBF9F309FB136642EAFA
:100AD000064403FB08F8A04509D9E41903F1FF32E5
:100AE00080F00A81A04540F20781023B3C44C8EBFC
:100AF000040443EA00400021002D62D024FA0EF4E1
:100B000000232C606B60BDE8F0878B4207D9002D75
:100B100055D0002185E841000846BDE8F087B3FACA
:100B200083F1002940F09080B34202D3824200F268
:100B3000F880841A66EB03060120B446002D40D0ED
:100B400085E81010BDE8F08712B90127B7FBF2F76E
:100B5000B7FA87FEBEF1000F35D1F31B4FEA1748F5
:100B60001FFA87FC0121B3FBF8F0220C08FB1036BA
:100B700042EA06460CFB00F3B34207D9F61900F12E
:100B8000FF3202D2B34200F2CE801046F61AA2B271
:100B9000B6FBF8F308FB136642EA06440CFB03FCC1
:100BA000A44507D9E41903F1FF3202D2A44500F2AB
:100BB000B5801346CCEB040443EA00409CE7294689
:100BC0002846BDE8F087CEF1200106FA0EF307FAB9
:100BD0000EF720FA01F94FEA1748CE4049EA030917
:100BE000B6FBF8FA4FEA194408FB1A661FFA87FCAD
:100BF00044EA06430AFB0CF29A4200FA0EF40AD9C0
:100C0000DB190AF1FF3180F087809A4240F284803C
:100C1000AAF1020A3B449B1A1FFA89F9B3FBF8F1C7
:100C200008FB113349EA034301FB0CF69E4207D946
:100C3000DB1901F1FF326BD29E4269D902393B4484
:100C40009B1B41EA0A418EE7C1F1200E22FA0EF405
:100C50008B40234320FA0EF706FA01F44FEA134CB7
:100C600026FA0EF63C43B6FBFCF9270C0CFB196682
:100C70001FFA83F847EA064609FB08F7B74202FA6B
:100C800001F200FA01FA08D9F61809F1FF3041D251
:100C9000B7423FD9A9F102091E44F61BA0B2B6FB28
:100CA000FCF40CFB146640EA064704FB08F8B84560
:100CB00007D9FF1804F1FF3028D2B84526D9023CE5
:100CC0001F4444EA0940C8EB0707A0FB02894F45CF
:100CD00044464E4614D329D065B3BAEB040367EB00
:100CE000060707FA0EFECB40CF404EEA030385E825
:100CF00088000021BDE8F0871346F8E61046E0E6DC
:100D0000B8EB020469EB03060138E5E70446D8E7CF
:100D1000114695E78146C0E78A467CE7023B3C44A2
:100D200048E708460AE702383E442FE7C245E7D3C2
:100D30003E46D1E72946BDE8F08700BF704700BFB7
:100D400080B5CEB000AF3B1D186007F1EC034C221C
:100D50000021184680F05AF907F1CC032022002127
:100D6000184680F053F907F110031846BC231A46C1
:100D7000002180F04BF9022005F040FB07F10C0345
:100D800000221A607D4A7D4B9B6943F44043936186
:100D90007A4B9B6903F4404207F10C031A60784ACE
:100DA000774BDB6A43F00103D362754BDB6A03F0D8
:100DB000010207F10C031A6007F10C031B6800BF66
:100DC0006E4B9B6903F40053002BF9D06D4A6D4BB9
:100DD0009B6A23F0030343F0020393622123C7F8C5
:100DE000EC304FF48033C7F8F0300123C7F80431FA
:100DF0000223C7F810310223C7F814310523C7F8BE
:100E00001831C023C7F81C310223C7F82031022350
:100E1000C7F824310223C7F828310823C7F82C313A
:100E20000023C7F830310023C7F8343107F1EC0351
:100E3000184605F029FB0346002B03D03621524803
:100E400000F0ACFF3F23C7F8CC300323C7F8D03005
:100E50000023C7F8D4300823C7F8D8304023C7F898
:100E6000DC304023C7F8E0304FF48063C7F8E4304B
:100E70004023C7F8E83007F1CC030421184605F0F9
:100E8000BBFE0346002B03D047213F4800F086FFFE
:100E900007F110033D4A1A6007F1100302225A605D
:100EA00007F1100340229A6007F110030222DA6072
:100EB00007F1100302221A6107F1100304225A619C
:100EC00007F11003C0229A6107F110030022DA61D2
:100ED00007F1100300221A6207F1100305225A627B
:100EE00007F11003A0229A6207F110030822DA62C8
:100EF00007F1100308221A6307F1100318225A633E
:100F000007F110034FF400629A6307F11003002207
:100F1000DA6307F1100300221A6407F110030222BA
:100F20005A6407F110034FF48032DA6407F11003BA
:100F30004FF48052DA6507F110034FF400321A665D
:100F400007F1100300225A6707F110034FF4401213
:100F5000C3F8842007F11003184606F0ADF90346E4
:100F6000002B03D06521084800F018FF05F07CFA3B
:100F700000BF07F59C77BD4680BD00BF0048025802
:100F80000004005800440258E0B9089002300521DE
:100F900080B400AF00231846BD465DF8047B70475F
:100FA00080B584B000AFF860B9607A607868FFF708
:100FB000C7FE00BF1037BD4680BD00BF80B500AF83
:100FC0000849094823F090FD4FF4F07200210748CA
:100FD00000F020FF064823F0EFF81FF0D9FE00BF15
:100FE00080BD00BF000008248CA00124F0B9089047
:100FF000F4B9089080B400AFBFF34F8FBFF36F8F89
:101000000B4B0022C3F85022BFF34F8FBFF36F8FFB
:10101000074A074B5B6943F400335361BFF34F8FBB
:10102000BFF36F8F00BFBD465DF8047B704700BF04
:1010300000ED00E080B485B000AF1D4B0022C3F886
:101040008420BFF34F8F1A4BD3F880307B607B68CE
:101050005B0BC3F30E03FB607B68DB08C3F3090380
:10106000BB601349FB685A0143F6E0731340BA684A
:1010700092071343C1F86032BB685A1EBA60002B56
:10108000EFD1FB685A1EFA60002BE5D1BFF34F8FFA
:10109000074A074B5B6943F480335361BFF34F8FBB
:1010A000BFF36F8F00BF1437BD465DF8047B7047F8
:1010B00000ED00E080B584B000AF04F077F90123C3
:1010C0003B704FF010537B6012233B720323FB7283
:1010D0000023FB730023BB7300237B7300237B700F
:1010E0000123BB7200237B7200233B733B461846EF
:1010F00004F090F901233B702C4B7B6007233B727B
:101100000323FB720123FB730023BB7300237B7358
:1011100002237B700023BB7200237B7200233B738E
:101120003B46184604F076F901233B70204B7B6068
:101130000D233B720323FB720023FB730123BB735C
:1011400000237B7303237B700023BB7200237B721D
:1011500000233B733B46184604F05CF901233B70C7
:101160004FF010437B6016233B720323FB72002376
:10117000FB730123BB7300237B7304237B70002369
:10118000BB7200237B7200233B733B46184604F07E
:1011900041F9042004F020F9FFF72CFFFFF74AFF84
:1011A000002318461037BD4680BD00BF0000043044
:1011B0000040043080B586B000AFF860B9607A6056
:1011C0000023FB75054B18687B68BA68F9685DF009
:1011D000F7FFFB7D18461837BD4680BDBC0D0024C7
:1011E00080B586B002AF786039600023FB737B68FE
:1011F000C3F30B03002B08D00C4B00930C4B0D4A90
:1012000068210D4800F04EF8FEE70C4B1B683A6869
:10121000796818465EF0E0F80346002B01DA0123F6
:10122000FB73FB7B18461037BD4680BDA0AB099011
:1012300068BA08902CBA08904CBA0890BC0D0024EB
:1012400080B586B000AFF860B9607A600023FB75A6
:10125000084B18687B68BA68F9685EF037F803468F
:10126000002B01DA0323FB75FB7D18461837BD46BA
:1012700080BD00BFBC0D002480B500AF4FF0FF3132
:10128000024820F0A3FB00BF80BD00BF9C0D0024DE
:1012900080B500AF024820F057FC00BF80BD00BF02
:1012A0009C0D00240CB480B584B000AF7860396028
:1012B00007F11C03FB603A687968094800F036F8CA
:1012C000FA68B969074822F043FF0649064800F06A
:1012D0002DF800BF1037BD46BDE8804002B0704712
:1012E00088BA08901C0D00249CBA08900FB480B5F1
:1012F00082B000AF07F114037B60094800F016F8D4
:101300007A683969074822F023FF0649064800F049
:101310000DF800BF0837BD46BDE8804004B07047F7
:10132000A0BA08901C0D00249CBA08900FB480B598
:1013300082B000AF07F114037B607A68396907480F
:1013400022F006FF0549064822F066FF00BF083775
:10135000BD46BDE8804004B0704700BF1C0D0024AE
:101360009CBA089080B584B002AF19481FF028FEDF
:1013700078607B68002B0CD1002058F0DDFC03F076
:1013800029F84FF0FF3058F0D7FC11481FF018FE35
:1013900078607B68002B17D00023009300230D4A50
:1013A0000D490B483FF086F90346002B06D10B4B45
:1013B00001220B4906204EF0A7FE05E0094B012251
:1013C000074904204EF0A0FE00BF0837BD4680BD8F
:1013D000C0BA0890C4BA0890C8BA0890D0BA0890A9
:1013E000ECBA0890FCBA089080B500AFC82024F091
:1013F00039FB0A483FF07CFA094B012209490620D3
:101400004EF082FE002058F097FC02F0E3FF4FF010
:10141000FF3058F091FC00BF80BD00BFC8BA0890F3
:1014200020BB0890ECBA089080B584B000AF78601B
:1014300035204FF095FD0346FB73142024F012FB7A
:10144000FB7B002B09D035204FF08AFD0346FB7350
:10145000FB7B002B01D0FFF785FFC82024F002FBA7
:10146000FB7B002B09D135204FF07AFD0346FB733F
:10147000FB7B002B01D0FFF775FFFB7B002BECD033
:1014800035204FF06DFD0346FB73FB7B002BE4D151
:10149000FFF7AAFFE1E700BF80B584B002AF394B88
:1014A00000930023384A394900203FF003F90346EE
:1014B000002B05D0364B0122364903204EF024FE86
:1014C00000237B6034485EF09FF878607B68002BD7
:1014D00030D07868002300930023304A30493FF031
:1014E000E9F80346002B1ED07B6800932D4B0122A8
:1014F000284904204EF008FE7B68194627483FF033
:1015000065FA7868002300930023244A24493FF0B9
:10151000D1F80346002B13D1234B01221D4906208D
:101520004EF0F2FD0CE0204B01221A4906204EF04D
:10153000EBFD05E01D4B0122164903204EF0E4FDB2
:10154000022135204FF0CCFC142301931E2300937D
:101550004FF4006300221649164824F09BF93860C6
:101560003B68002B03D0386824F044F905E0124BA7
:101570000122084903204EF0C7FD00231846083712
:10158000BD4680BDD0AB099034BB0890BCBA089072
:1015900038BB0890ECBA089054BB089060BB089028
:1015A00064BB08906CBB089098BB0890B4BB0890D3
:1015B00029140090F4BB089000BC089080B483B05C
:1015C00000AF0A4A094BD3F8F43043F00203C2F8E3
:1015D000F430064BD3F8F43003F002037B607B68F1
:1015E00000BF0C37BD465DF8047B704700440258CD
:1015F00080B58EB000AF786007F1240300221A6036
:101600005A609A60DA601A617B681B684D4A93429F
:1016100040F093804C4A4C4BD3F8D83043F400430D
:10162000C2F8D830484BD3F8D83003F400433B62BB
:101630003B6A454A444BD3F8D83043F48033C2F870
:10164000D830414BD3F8D83003F48033FB61FB69C9
:101650003D4A3D4BD3F8D83043F40033C2F8D8307C
:10166000394BD3F8D83003F40033BB61BB69364A39
:10167000354BD3F8E03043F04003C2F8E030324B52
:10168000D3F8E03003F040037B617B692E4A2E4B98
:10169000D3F8E03043F00403C2F8E0302A4BD3F82B
:1016A000E03003F004033B613B69274A264BD3F843
:1016B000E03043F00103C2F8E030234BD3F8E030D0
:1016C00003F00103FB60FB684FF4D0437B6202230D
:1016D000BB620023FB6203233B630B237B6307F1A5
:1016E00024031946194807F005F932237B620223C7
:1016F000BB620023FB6203233B630B237B6307F185
:1017000024031946124807F0F5F886237B6202236A
:10171000BB620023FB6203233B630B237B6307F164
:10172000240319460B4807F0E5F8002200213D206C
:1017300003F0FAFD3D2003F011FE00BF3837BD462F
:1017400080BD00BF008002400044025800180258CB
:10175000000802580000025880B582B000AF7860DF
:101760007B681B68174A934227D1174A164BD3F858
:10177000D83023F40043C2F8D830134A124BD3F8C0
:10178000D83023F48033C2F8D8300F4A0E4BD3F848
:10179000D83023F40033C2F8D8304FF4D0410B488E
:1017A00007F058FA32210A4807F054FA862109480E
:1017B00007F050FA3D2003F0DFFD00BF0837BD46BB
:1017C00080BD00BF0080024000440258001802584B
:1017D000000802580000025880B58EB000AF786053
:1017E00007F1240300221A605A609A60DA601A61D5
:1017F0007B681B685C4A934256D15C4A5B4BD3F8CA
:10180000D43043F48033C2F8D430584BD3F8D430BA
:1018100003F480333B623B6A544A544BD3F8E030C4
:1018200043F00403C2F8E030504BD3F8E03003F04B
:101830000403FB61FB694D4A4C4BD3F8E03043F0A5
:101840000803C2F8E030494BD3F8E03003F0080356
:10185000BB61BB694FF4F8537B620223BB62002378
:10186000FB6203233B630C237B6307F124031946CC
:101870003F4807F03FF804237B620223BB6200234A
:10188000FB6203233B630C237B6307F124031946AC
:10189000384807F02FF800220021312003F044FDE2
:1018A000312003F05BFD5AE07B681B68324A9342AB
:1018B00055D12E4A2D4BD3F8DC3043F40073C2F8D7
:1018C000DC302A4BD3F8DC3003F400737B617B6996
:1018D000264A264BD3F8E03043F00203C2F8E0304A
:1018E000224BD3F8E03003F002033B613B691F4A0F
:1018F0001E4BD3F8E03043F00803C2F8E0301B4B36
:10190000D3F8E03003F00803FB60FB684CF21803E7
:101910007B620223BB620023FB6203233B63092338
:101920007B6307F124031946144806F0E3FFC02344
:101930007B620223BB620023FB6203233B630B2316
:101940007B6307F1240319460A4806F0D3FF0022FF
:1019500000217C2003F0E8FC7C2003F0FFFC00BFAA
:101960003837BD4680BD00BF0070005200440258A9
:1019700000080258000C02580024024800040258D3
:1019800080B58EB000AF786007F1240300221A60A2
:101990005A609A60DA601A617B681B68534A934206
:1019A0006DD1534A524BD3F8F03043F48053C2F810
:1019B000F0304F4BD3F8F03003F480533B623B6A76
:1019C0004B4A4B4BD3F8E03043F00203C2F8E0300F
:1019D000474BD3F8E03003F00203FB61FB69444A54
:1019E000434BD3F8E03043F04003C2F8E030404BC3
:1019F000D3F8E03003F04003BB61BB693C4A3C4B89
:101A0000D3F8E03043F00103C2F8E030384BD3F8AC
:101A1000E03003F001037B617B6920237B620223BA
:101A2000BB620023FB6202233B6305237B6307F158
:101A3000240319462F4806F05DFF4FF400737B62C4
:101A40000223BB620023FB6202233B6305237B630B
:101A500007F124031946284806F04CFF20237B6237
:101A60000223BB620023FB6202233B6305237B63EB
:101A700007F124031946214806F03CFF32E07B6859
:101A80001B681F4A93422DD1194A194BD3F8F030E5
:101A900043F40053C2F8F030154BD3F8F03003F4A0
:101AA00000533B613B69124A114BD3F8E03043F0DD
:101AB0001003C2F8E0300E4BD3F8E03003F010030F
:101AC000FB60FB6864237B620223BB620023FB6232
:101AD00002233B6305237B6307F12403194609486E
:101AE00006F008FF00BF3837BD4680BD003001401A
:101AF000004402580004025800180258000002581E
:101B0000003401400010025880B58EB000AF7860FC
:101B100007F1240300221A605A609A60DA601A61A1
:101B20007B681B68544A93424ED1544A534BD3F8B6
:101B3000E83043F40023C2F8E830504BD3F8E830E3
:101B400003F400233B623B6A4C4A4C4BD3F8E03031
:101B500043F48073C2F8E030484BD3F8E03003F42C
:101B60008073FB61FB69454A444BD3F8E03043F096
:101B70000103C2F8E030414BD3F8E03003F0010339
:101B8000BB61BB694FF400737B620223BB6200231D
:101B9000FB6200233B6308237B6307F124031946A0
:101BA000374806F0A7FE01237B620223BB620023B5
:101BB000FB6200233B6308237B6307F12403194680
:101BC000304806F097FE53E07B681B682E4A93422C
:101BD0004ED12A4A294BD3F8E83043F48023C2F887
:101BE000E830264BD3F8E83003F480237B617B692F
:101BF000224A224BD3F8E03043F00203C2F8E0302F
:101C00001E4BD3F8E03003F002033B613B691B4AF3
:101C10001A4BD3F8E03043F00803C2F8E030174B1A
:101C2000D3F8E03003F00803FB60FB684FF4406337
:101C30007B620223BB620023FB6202233B63072318
:101C40007B6307F124031946104806F053FE4FF456
:101C5000C0537B620223BB620023FB6202233B630F
:101C600007237B6307F124031946094806F042FE67
:101C700000BF3837BD4680BD004C004000440258CC
:101C8000002002580000025800480040000402589A
:101C9000000C025880B483B000AF03463960FB806B
:101CA000B7F90630002B0ADB0D49B7F906303A6860
:101CB000D2B21201D2B20B4483F800230AE00949E0
:101CC000FB8803F00F03043B3A68D2B21201D2B290
:101CD0000B441A7600BF0C37BD465DF8047B704795
:101CE00000E100E000ED00E080B582B000AF034607
:101CF0003960FB7124F034FF00BF0837BD4680BD5A
:101D000080B500AF06F076FC0246084BA3FB022329
:101D10009B09184603F03EFB042003F0BFFBFF21A4
:101D20004FF0FF30FFF7B6FF00BF80BDD34D62100C
:101D300080B500AF21F05EFB03F0C6F91EF0A0FFF6
:101D400021F078FB00BF80BD80B500AF1EF08CFF96
:101D500002464FF47A7303FB02F3034AA2FB032308
:101D60009B09184680BD00BFD34D621080B582B07C
:101D700000AF78607B68184623F074FE00BF083718
:101D8000BD4680BD80B483B000AF786000231846A4
:101D90000C37BD465DF8047B704700BF80B483B04C
:101DA00000AF78603960FEE780B489B000AF78603A
:101DB000154B9B68FB61144B5B68BB61134B1B6845
:101DC000134AA2FB03239B0C7B610F4B9B683B6177
:101DD000FA693B699A4203D9FA693B69D31A04E06C
:101DE000BA69FB691A443B69D31AFB607B697A685C
:101DF00002FB03F2FB689A42E7D800BF2437BD46D6
:101E00005DF8047B704700BF10E000E0340100245F
:101E100083DE1B4380B586B000AFF860B9607A609E
:101E200003F01AF900237B617B6983F310887A68D9
:101E3000B968F868FFF7B4F801233B613B6983F3A5
:101E40001088FFF75DFF01F0C9F900F021FD00BF28
:101E50001837BD4680BD00BF80B483B000AF0346D5
:101E6000FB80B7F90630002B0BDB0949B7F90630C8
:101E70005B09FA8802F01F02012000FA02F241F821
:101E8000232000BF0C37BD465DF8047B704700BFC0
:101E900000E100E080B483B000AF0346FB80B7F9F7
:101EA0000630002B10DB0B49B7F906305B09FA88C6
:101EB00002F01F02012000FA02F2203341F8232031
:101EC000BFF34F8FBFF36F8F00BF0C37BD465DF878
:101ED000047B704700E100E080B487B000AF786019
:101EE0007B685B682C4A93422CD02B4A934203D8E0
:101EF0002A4A934216D045E0294A934232D0294AD1
:101F000093423FD1284A284BD3F8F03043F01003D6
:101F1000C2F8F030244BD3F8F03003F010037B61AB
:101F20007B6932E0204A204BD3F8E83043F4802329
:101F3000C2F8E8301C4BD3F8E83003F480233B614F
:101F40003B6922E0184A184BD3F8E83043F40023E9
:101F5000C2F8E830144BD3F8E83003F40023FB60F8
:101F6000FB6812E0104A104BD3F8E83043F48013BA
:101F7000C2F8E8300C4BD3F8E83003F48013BB60B0
:101F8000BB6802E04FF0FF3300E0002318461C3727
:101F9000BD465DF8047B7047004C0040004800409F
:101FA00000500040001001400044025880B58EB03F
:101FB00000AF78607B688D4A93422DD07B688C4A55
:101FC000934229D07B688B4A934225D07B688A4A0A
:101FD000934221D07B68894A93421DD07B68884A0E
:101FE000934219D07B68874A934215D07B68864A12
:101FF000934211D07B68854A93420DD07B68844A16
:10200000934209D07B68834A934205D04FF486728D
:102010008149824822F040F97B68794A93427DD019
:10202000774A934213D8734A934247D0714A9342F6
:1020300006D86E4A934221D06D4A93422ED0CDE00D
:102040006D4A93424AD06D4A934257D0C6E06F4AD8
:10205000934200F093806D4A934206D8694A9342B6
:102060006CD0694A934279D0B8E0694A934200F053
:102070009580684A934200F0A180AFE0684A684BBF
:10208000D3F8E03043F00103C2F8E030644BD3F8FA
:10209000E03003F001037B637B6BA2E0604A604B9E
:1020A000D3F8E03043F00203C2F8E0305C4BD3F8E1
:1020B000E03003F002033B633B6B92E0584A584B1D
:1020C000D3F8E03043F00403C2F8E030544BD3F8C7
:1020D000E03003F00403FB62FB6A82E0504A504B9D
:1020E000D3F8E03043F00803C2F8E0304C4BD3F8AB
:1020F000E03003F00803BB62BB6A72E0484A484B19
:10210000D3F8E03043F01003C2F8E030444BD3F88A
:10211000E03003F010037B627B6A62E0404A404B90
:10212000D3F8E03043F02003C2F8E0303C4BD3F862
:10213000E03003F020033B623B6A52E0384A384B00
:10214000D3F8E03043F04003C2F8E030344BD3F82A
:10215000E03003F04003FB61FB6942E0304A304B62
:10216000D3F8E03043F08003C2F8E0302C4BD3F8D2
:10217000E03003F08003BB61BB6932E0284A284BA2
:10218000D3F8E03043F48073C2F8E030244BD3F846
:10219000E03003F480737B617B6922E0204A204BAE
:1021A000D3F8E03043F40073C2F8E0301C4BD3F8AE
:1021B000E03003F400733B613B6912E0184A184BAE
:1021C000D3F8E03043F48063C2F8E030144BD3F826
:1021D000E03003F48063FB60FB6802E04FF0FF3304
:1021E00000E0002318463837BD4680BD0000025885
:1021F0000004025800080258000C0258001002584F
:102200000014025800180258001C025800200258FE
:10221000002402580028025814AC099070BC0890A1
:102220000044025880B483B000AF78607B681B78AC
:10223000602B09D97B681B787A2B05D87B681B78C3
:10224000203BDAB27B681A70002318460C37BD4673
:102250005DF8047B704700BF80B586B000AFF860C2
:10226000B9607A60FB68023318467DF0F7FE78614A
:10227000FB685B78FB7407F113031846FFF7D2FF86
:1022800007F113031846FFF7CDFFFB7C1A46084BF6
:1022900013449B021A46BB681A6001227B6902FA4A
:1022A00003F39AB27B681A8000BF1837BD4680BD21
:1022B0003F00160090B583B000AF786039607A684F
:1022C000094B13449B0A9BB21B019CB23B68184606
:1022D00024F054FC03469BB223449BB2013B9BB2C7
:1022E00018460C37BD4690BD0000FEA780B58EB0E5
:1022F00000AF786000237B8500237B6300233B6372
:102300000023FB62002387F829307B681B6907F1F3
:102310001C0207F120011846FFF79EFF7B68DB686F
:1023200007F11E0207F124011846FFF795FF7B68AD
:102330001B6804331B78303B87F829307B6AFA8BA3
:1023400011461846FFF7B6FF03467B8500237B63E3
:1023500022E02D4A7B6B32F823307A8D9A4218D1D5
:10236000294A7B6B9B0013449A7897F8293063F0D5
:102370007F03DBB29A420CD1234A7B6B9B00134450
:10238000DB783B637B6B01331F4A9B001344DB7894
:10239000FB627B6B02337B637B6B312BD9D907F1FB
:1023A000080300221A605A609A60DA601A617B6A38
:1023B0001846FFF7FBFD7A6A3B6A9A4203D03B6AF4
:1023C0001846FFF7F3FDFB8BBB600223FB60012384
:1023D0003B6102237B613B6BBB617B6A07F10802B7
:1023E0001146184606F086FABB8BBB60FB6ABB61E0
:1023F0003B6A07F108021146184606F07BFA0023F3
:1024000018463837BD4680BD2CAC099080B584B0E5
:1024100000AF786039607B68002B05D140F2E9128B
:102420004849494821F038FF3B68002B05D14FF45B
:10243000F5724449454821F02FFF7B68943BFB60CF
:10244000FB68D3F88C301846FFF746FDFB68D3F8DD
:102450008C301846FFF74AFFFB68D3F88C305A6877
:10246000FB681A603B681A68FB685A60FB680022C8
:102470009A61FB680C225A61FB680022DA61FB68F2
:102480001B68334A934203D1FB684FF440729A6150
:102490003B681B79C3F30303DBB2082B02D0092B83
:1024A00004D008E0FB6800229A6008E0FB684FF463
:1024B00080529A6003E0FB6800229A6000BF3B688C
:1024C0001B79C3F30113DBB2002B02D0012B04D024
:1024D00008E0FB680022DA6008E0FB684FF4005275
:1024E000DA6003E0FB680022DA6000BF3B681B791A
:1024F000C3F38113DBB2012B07D0022B0AD0002BD0
:102500000DD1FB6800221A610DE0FB684FF4C06238
:102510001A6108E0FB684FF480621A6103E0FB680F
:1025200000221A6100BFFB68184606F00FFD034643
:10253000002B02D04FF0FF3300E000231846103785
:10254000BD4680BDF4AC09908CBC0890A0BC08903E
:102550000048004080B586B000AFF860B9607A608E
:10256000FB68002B05D140F235221949194821F0AA
:1025700093FEFB68943B7B61BB68102B12D0112B40
:1025800021D17B69D3F88C30B3F908301846FFF7B6
:1025900081FC7B691B687A691268126822F020024C
:1025A0001A6010E07B69D3F88C30B3F90830184614
:1025B000FFF752FC7B691B687A691268126842F067
:1025C00020021A6000BF002318461837BD4680BDA0
:1025D00004AD09908CBC089080B584B000AF7860E1
:1025E0000B46FB707B68002B05D140F255220E494B
:1025F0000E4821F051FE7B68943BFB60FB681B6832
:1026000040221A62FB681B68FA789A6200BFFB6876
:102610001B68DB6903F04003002BF8D00123184648
:102620001037BD4680BD00BF14AD09908CBC08902A
:1026300080B584B000AF78607B68002B05D14FF483
:102640001A720D490D4821F027FE7B68943BBB6050
:102650004FF0FF33FB60BB681B68DB6903F02003AE
:10266000002B04D0BB681B685B6ADBB2FB60FB68B5
:1026700018461037BD4680BD20AD09908CBC08902F
:1026800080B586B000AFF860B9607A603B60FB68E7
:10269000002B05D14FF41F721049114821F0FCFDA9
:1026A000FB68943B7B617B68002B01D1002311E028
:1026B0003B68022B0DD17B697A6892B2B9681846E3
:1026C00006F094FC0346002B01D17B6802E0002356
:1026D00000E0002318461837BD4680BD2CAD099098
:1026E0008CBC089080B584B000AF78607B68002B0C
:1026F00005D14FF42A723B493B4821F0CDFD7B6860
:10270000943BFB60FB681B68DB6903F02003002B34
:102710000BD0FB681B681B6803F02003002B04D060
:10272000012178685BF0A4FC58E0FB681B68DB695A
:1027300003F00803002B03D0FB681B6808221A6211
:10274000FB681B68DB6903F00403002B03D0FB6804
:102750001B6804221A62FB681B68DB6903F0020332
:10276000002B03D0FB681B6802221A62FB681B68FF
:10277000DB6903F00103002B03D0FB681B68012217
:102780001A62FB681B68DB6903F48063002B04D0CA
:10279000FB681B684FF480621A62FB681B68DB6988
:1027A00003F08003002B03D0FB681B6880221A62B1
:1027B000FB681B68DB6903F04003002B03D0FB6858
:1027C0001B6840221A62FB681B68DB6903F0200368
:1027D000002B03D0FB681B6820221A6200BF103751
:1027E000BD4680BD40AD09908CBC089080B500AF5F
:1027F00020F000FE0348FFF775FF20F01BFE00BF2E
:1028000080BD00BF540E002480B500AF20F0F2FD63
:102810000348FFF767FF20F00DFE00BF80BD00BF3B
:102820004C0F002480B500AF20F0E4FD0348FFF713
:1028300059FF20F0FFFD00BF80BD00BF4410002401
:1028400080B500AF20F0D6FD0348FFF74BFF20F026
:10285000F1FD00BF80BD00BF3C11002480B400AF7B
:102860000A4B0022A3F89020084B0022A3F88821ED
:10287000064B0022A3F88022044B0022A3F8782301
:1028800000BFBD465DF8047B704700BFC00D00244B
:1028900090B587B000AF0423FB60384A3B1D92E837
:1028A000030083E8030000237B61FFF7D7FF0023C9
:1028B0003B6159E03A6913469B0013449B00304A40
:1028C000991830483A6913465B019B1ADB000344B0
:1028D0008C3319602B493A6913465B019B1ADB0064
:1028E0000B44E433284A1A6026493A6913465B01CF
:1028F0009B1ADB000B44E8331A463B1D93E80300A8
:1029000082E803003A6913465B019B1ADB009033AF
:102910001C4A1344181D1B493A6913465B019B1A54
:10292000DB000B448C331B681C6816493A6913465C
:102930005B019B1ADB000B4490331A8840F203536F
:1029400013439BB21A46002321465BF03FFB78619C
:102950007B69002B05D040F274520C490C4821F0E1
:102960009BFC3B6901333B613A69FB689A42A1D306
:102970007B6918461C37BD4690BD00BFC4BC08909B
:1029800000000024C00D002400AC09904CAD09905B
:10299000B0BC089080B588B000AF786000237B6140
:1029A0000023FB61786820F07DFF03463B613B69B3
:1029B000032B02DD3B69052B02DD6FF009033EE0CE
:1029C0007B681B78502B04D17B6802331B782E2B3D
:1029D00002D06FF0090332E07B6801331B78402B93
:1029E0000CD97B6801331B785A2B07D87B680133DD
:1029F0001B78413BFB600323BB6113E06FF00903CD
:102A00001DE0FA6913469B0013445B00FB61BB6940
:102A10007A6813441B78303BFA691344FB61BB6945
:102A20000133BB61BA693B699A42EADBFB681B016F
:102A3000DAB2FB6903F00F0313437B617B6918462D
:102A40002037BD4680BD00BF80B586B000AFF860BE
:102A5000B9607A60BB681B11DBB203F00F030A2B6D
:102A600017D8BB681B11DBB203F00F020B4B1344EA
:102A70009B027B61BB68DBB203F00F03012202FA09
:102A800003F37B827B68DAB27B8A1946786906F0A9
:102A900003FA00BF1837BD4680BD00BF8000160096
:102AA00080B586B000AF7860396000237B613B68F9
:102AB0001B11DBB203F00F030A2B17D83B681B1165
:102AC000DBB203F00F020C4B13449B023B613B68EB
:102AD000DBB203F00F03012202FA03F3FB81FB894F
:102AE0001946386906F0C0F903467B617B691846D0
:102AF0001837BD4680BD00BF8000160080B58AB083
:102B000000AFF860B9607A60BB681B11DBB203F0FC
:102B10000F030A2B45D8BB68DBB203F00F03012279
:102B200002FA03F39BB27B610123BB610023FB61CB
:102B300002233B627B68002B04D10123BB6100238D
:102B4000FB611EE07B68012B04D10023BB610023E5
:102B5000FB6116E07B68022B04D10023BB610123DB
:102B6000FB610EE07B68032B04D10023BB610223D1
:102B7000FB6106E07B68042B03D11123BB610023BA
:102B8000FB61BB681B11DBB203F00F02074B134460
:102B90009B021A4607F114031946104605F0AAFED7
:102BA00000E000BF2837BD4680BD00BF8000160092
:102BB00080B485B000AF78600023FB600CE0012298
:102BC000FB6802FA03F31A467B689A4201D1FB685C
:102BD00007E0FB680133FB60FB681F2BEFDD4FF064
:102BE000FF3318461437BD465DF8047B704700BFBD
:102BF00080B584B000AF78607868FFF7D9FFF860DF
:102C0000FB68002B02DBFB680F2B01D9002303E0DC
:102C1000FB689B00024A134418461037BD4680BD2E
:102C200060AD099080B586B000AFF860B9607A6099
:102C30003B604FF0FF337B61BB681B11DBB203F0DD
:102C40000F030A2B02D96FF005038DE0BB68DBB2DE
:102C500003F00F03012202FA03F39BB21846FFF7B9
:102C6000A7FF78617B69002B02DB7B690F2B01D901
:102C7000062379E0FDF73EFB38613D497A6913464A
:102C80005B0013449B000B44B3F900301A46BB6849
:102C90009A4229D136497A6913465B0013449B0056
:102CA0000B4404331A683B689A421DD130497A6953
:102CB00013465B0013449B000B4402331B881A46E7
:102CC0007B689A4210D12A497A6913465B00134403
:102CD0009B000B4408331A683B6A9A4204D1386956
:102CE000FDF70CFB00233FE021497A6913465B00A6
:102CF00013449B000B44B3F90030B3F1FF3F04D001
:102D00003869FDF7FBFA07232EE0BB6818B21849B3
:102D10007A6913465B0013449B000B4402461A80F9
:102D200013497A6913465B0013449B000B44043338
:102D30003A681A607B6898B20D497A6913465B005D
:102D400013449B000B44023302461A8008497A69F7
:102D500013465B0013449B000B4408333A6A1A6025
:102D60003869FDF7CBFA002318461837BD4680BDF9
:102D70005000002480B584B000AF786039604FF017
:102D8000FF33FB603B681B11DBB203F00F030A2B20
:102D900002D96FF0050353E03B68DBB203F00F0389
:102DA000012202FA03F39BB21846FFF701FFF86015
:102DB000FB68002B02DBFB680F2B01D906233FE0E9
:102DC000FDF798FAB8602049FA6813465B0013448F
:102DD0009B000B44B3F90030B3F1FF3F04D1B86856
:102DE000FDF78CFA00232BE01749FA6813465B00C5
:102DF00013449B000B444FF6FF721A801249FA6885
:102E000013465B0013449B000B44043300221A60FA
:102E10000D49FA6813465B0013449B000B440233D0
:102E200000221A800849FA6813465B0013449B008D
:102E30000B44083300221A60B868FDF75FFA0023DC
:102E400018461037BD4680BD5000002480B58CB0B8
:102E500000AFF860B9607A604FF0FF33FB62BB6887
:102E60001B11DBB203F00F030A2B02D96FF005032D
:102E7000F0E07B68012B7ED1BB68DBB203F00F036F
:102E8000012202FA03F39BB21846FFF791FEF862A3
:102E9000FB6A002B02DBFB6A0F2B01D90623D9E06A
:102EA000FDF728FAB8626D49FA6A13465B001344CD
:102EB0009B000B44B3F90030B3F1FF3F04D1B86A73
:102EC000FDF71CFA0623C5E0FB6A9B00644A134425
:102ED0007B62BB68DBB203F00F03012202FA03F34B
:102EE0009BB23B610223FB615C49FA6A13465B00BB
:102EF00013449B000B4402331B88012B08D0022B88
:102F00000BD0002B0ED10223BB61564B7B6109E035
:102F10000123BB61544B7B6104E00023BB61534B35
:102F20007B6100BFBB681B11DBB203F00F02504B8B
:102F300013449B021A4607F110031946104605F088
:102F4000D9FC7B6AB3F9023000220521184602F051
:102F5000EBF97B6AB3F90230184602F0FFF97B6A9D
:102F60001B881A46434B1B681343424A1360B86AD6
:102F7000FDF7C4F96DE07B68002B67D1BB68DBB25D
:102F800003F00F03012202FA03F39BB21846FFF786
:102F90002FFE78627B6A002B01D106235AE0FDF7F1
:102FA000A9F9B862BB681B11DBB203F00F02304B0A
:102FB00013449B021846BB68DBB203F00F030122E7
:102FC00002FA03F39BB2194605F044FE7B6A1B88A4
:102FD000DB431A46274B1B681340264A13607B6A63
:102FE0001B881F2B11D97B6A1B88B3F5007F0CD877
:102FF000204B1B6803F47873002B23D17B6AB3F951
:103000000230184602F0B8F91CE07B6A1B88B3F561
:10301000806F11D37B6A1B88B3F5004F0CD8154B1A
:103020001B6803F47C43002B0CD17B6AB3F902309C
:10303000184602F0A1F905E07B6AB3F902301846A0
:1030400002F09AF9B86AFDF759F902E06FF005034A
:1030500000E0002318463037BD4680BD50000024F4
:1030600060AD099000001111000021110000311124
:1030700080001600A011002480B582B000AF7860F7
:1030800011497A6813465B0013449B000B440433D8
:103090001B68002B13D00C497A6813465B0013445D
:1030A0009B000B440433196807487A6813465B0099
:1030B00013449B00034408331B681846884700BF2D
:1030C0000837BD4680BD00BF5000002480B582B0E7
:1030D00000AF0346FB80FB881846FFF769FD0346F7
:1030E0001846FFF7C9FF00BF0837BD4680BD00BFC7
:1030F00080B500AF20F07EF9012005F0E7FE20F05A
:1031000099F900BF80BD00BF80B500AF20F072F913
:10311000022005F0DBFE20F08DF900BF80BD00BF6E
:1031200080B500AF20F066F9042005F0CFFE20F056
:1031300081F900BF80BD00BF80B500AF20F05AF913
:10314000082005F0C3FE20F075F900BF80BD00BF68
:1031500080B500AF20F04EF9102005F0B7FE20F04A
:1031600069F900BF80BD00BF80B500AF20F042F913
:10317000202005F0ABFE402005F0A8FE802005F0E1
:10318000A5FE4FF4807005F0A1FE4FF4007005F02D
:103190009DFE20F04FF900BF80BD00BF80B500AF9D
:1031A00020F028F94FF4806005F090FE4FF40060A5
:1031B00005F08CFE4FF4805005F088FE4FF400506F
:1031C00005F084FE4FF4804005F080FE4FF400408F
:1031D00005F07CFE20F02EF900BF80BD80B58CB0DC
:1031E00000AF574A564BD3F8E03043F00103C2F822
:1031F000E030534BD3F8E03003F00103FB62FB6A8D
:103200004F4A4F4BD3F8E03043F00203C2F8E030AE
:103210004B4BD3F8E03003F00203BB62BB6A484A71
:10322000474BD3F8E03043F00403C2F8E030444B9E
:10323000D3F8E03003F004037B627B6A404A404BE2
:10324000D3F8E03043F00803C2F8E0303C4BD3F849
:10325000E03003F008033B623B6A394A384BD3F84D
:10326000E03043F01003C2F8E030354BD3F8E030E3
:1032700003F01003FB61FB69314A314BD3F8E030B6
:1032800043F02003C2F8E0302D4BD3F8E03003F0D8
:103290002003BB61BB692A4A294BD3F8E03043F0D5
:1032A0004003C2F8E030264BD3F8E03003F040038F
:1032B0007B617B69224A224BD3F8E03043F08003E4
:1032C000C2F8E0301E4BD3F8E03003F080033B61DE
:1032D0003B691B4A1A4BD3F8E03043F48073C2F8C1
:1032E000E030174BD3F8E03003F48073FB60FB68E9
:1032F000134A134BD3F8E03043F40073C2F8E030C4
:103300000F4BD3F8E03003F40073BB60BB680C4A8A
:103310000B4BD3F8E03043F48063C2F8E030084B45
:10332000D3F8E03003F480637B607B6800220549BA
:1033300005484DF047FD034618463037BD4680BD71
:1033400000440258A0AD0990CCBC089080B584B070
:1033500000AF786039607B68002B04D15322864926
:10336000864820F099FF3B68002B04D15422824903
:10337000834820F091FF7B68FB603B681B7803F07B
:103380000803002B03D0FB6800225A6003E0FB68AF
:103390004FF480025A603B681B7803F04003002B17
:1033A00004D0FB684FF4C0229A6002E0FB68002260
:1033B0009A603B685B78082B0BD1FB680722DA60C8
:1033C000FB680822A3F86020FB680822A3F86820A5
:1033D00009E03B685B78102B03D1FB680F22DA60B1
:1033E00001E008232AE13B681B7803F00103002B6E
:1033F00004D0FB684FF080725A6102E0FB68002243
:103400005A613B681B7803F00203002B04D0FB6871
:103410004FF000721A6102E0FB6800221A613B68FB
:103420001B7803F02003002B04D0FB684FF0806270
:103430009A6103E0FB684FF080629A6103F080FDBF
:10344000B8603B685A68BB685B089A4203D3FB6864
:103450000022DA6145E03B685A68BB689B089A42E3
:1034600004D3FB684FF08052DA613AE03B685A6857
:10347000BB68DB089A4204D3FB684FF00052DA6164
:103480002FE03B685A68BB681B099A4204D3FB686B
:103490004FF04052DA6124E03B685A68BB685B0930
:1034A0009A4204D3FB684FF08042DA6119E03B682E
:1034B0005A68BB689B099A4204D3FB684FF0A0424C
:1034C000DA610EE03B685A68BB68DB099A4204D3B4
:1034D000FB684FF0C042DA6103E0FB684FF0E04266
:1034E000DA613B681B7803F00403002B03D0FB6810
:1034F00000221A6203E0FB684FF400021A62FB68C4
:1035000000225A62FB6800229A62FB68002283F85C
:103510008120FB684FF480025A60FB684FF08062A4
:103520009A61FB6800225A63FB6800229A63FB6879
:103530000722DA62FB6800221A64FB6800225A64E0
:10354000FB6800229A64FB680022DA64FB680022B0
:103550001A65FB684FF000425A65FB6800229A65C5
:10356000FB680022DA63F86808F05EF90346002B76
:1035700008D0082362E000BFC4AD0990E0BC089009
:10358000F4BC08907B6893F8803103F00103002BB2
:1035900021D07B689033184601F09CFF7B6803F1D3
:1035A00090027B68DA677A687B68C3F8C8207B681A
:1035B000D3F888309B68B3F9083000220021184600
:1035C00001F0B2FE7B68D3F888309B68B3F908300D
:1035D000184601F0C3FE7B6893F8803103F00203C4
:1035E000002B22D07B6803F58473184601F072FF2C
:1035F0007B6803F584727B689A677A687B68C3F896
:1036000040217B68D3F88830DB68B3F908300122A9
:103610000021184601F088FE7B68D3F88830DB680B
:10362000B3F90830184601F099FEFB681B68FA6888
:103630001268126842F001021A600023184610371F
:10364000BD4680BD80B58EB002AF786039607B68C2
:10365000002B05D140F213128449854820F01CFE4E
:103660007B681B6D002B05D14FF48A727F4981481E
:1036700020F012FE7B681B6DDB6C002B05D140F245
:1036800015127A497C4820F007FE3B68002B05D1D3
:103690004FF48B727549794820F0FEFD7B681B6DF5
:1036A000A3F5C2733B623B6AFB617B68DB6CBB6169
:1036B0003B681B7C03F00103DBB2002B07D0BB6926
:1036C0001868BB699B880022194605F0E5FB3B683A
:1036D0009B68BB623B685B687B613B681B683B61C6
:1036E000AAE0BB6AB3F5803F07D34FF6FF73FB84B4
:1036F000BA6A634B1344BB6203E0BB6AFB840023DA
:10370000BB623B689A68FB8CD21ABB6AD31AFB6017
:103710003B681A68FB6813443B613B685A68FB6866
:1037200013447B613B681B68002B29D03B685B68B6
:10373000002B25D03B6A93F8803103F00203002B65
:1037400010D03B6A93F8803103F00103002B09D0BD
:10375000FB8C7A693969F86909F0CAFA034687F877
:103760002F304EE0FA8C4FF47A73009313467A6947
:103770003969F86908F032FD034687F82F3040E0D8
:103780003B681B68002B1BD03B6A93F8803103F029
:103790000203002B09D0FB8C1A463969F86909F03D
:1037A00009F8034687F82F302BE0FA8C4FF47A7330
:1037B0003969F86908F02EF9034687F82F3020E0C0
:1037C000FB8C1A46FF2178697DF020FC3B6A93F858
:1037D000803103F00103002B09D0FB8C1A46796974
:1037E000F86909F02DF9034687F82F3009E0FA8CC3
:1037F0004FF47A737969F86908F0FEFA034687F89E
:103800002F3097F82F30002B0FD097F82F300093E0
:103810001C4B01221C4906204CF076FC3B68002220
:103820009A60FB69012283F8812000BFF86909F0E2
:1038300073FC0346012BF9D1BB6A002B7FF451AF17
:103840003B681B7C03F00203DBB2002B07D0BB6993
:103850001868BB699B880122194605F01DFB3B686F
:103860009B6818463037BD4680BD00BFD4AD099077
:1038700004BD089018BD089030BD08905CBD08904C
:103880000100FFFF70BD089088BD089080B584B02E
:1038900000AF786039607B68002B05D140F27D1263
:1038A0000F49104820F0F8FC3B68002B05D14FF47D
:1038B000BF720B490C4820F0EFFC7B681B6DA3F531
:1038C000C273FB60FB683A68C3F88C203968F868FB
:1038D000FFF73CFD034618461037BD4680BD00BFCC
:1038E000DCAD099004BD089090BD089080B584B00F
:1038F00000AF0023BB601FE1BB681B01934A99180E
:103900009348BA681346DB0113449B000344883391
:103910001960BB681B018D4A99188D48BA68134617
:10392000DB0113449B00034403F5E8731960874AE5
:10393000BB681B01134419688548BA681346DB014C
:1039400013449B00034419608149BA681346DB01A4
:1039500013449B000B4403F5C0731B7803F0010371
:10396000002B59D0794ABB681B01134408331B68EC
:1039700019687748BA681346DB0113449B00034477
:10398000903319607249BA681346DB0113449B00F7
:103990000B44983300221A606D49BA681346DB0164
:1039A00013449B000B449C3300221A606849BA6898
:1039B0001346DB0113449B000B44A0334FF4806299
:1039C0001A606349BA681346DB0113449B000B4439
:1039D000A43300221A605E49BA681346DB0113441F
:1039E0009B000B44A83300221A605949BA68134659
:1039F000DB0113449B000B44AC3300221A60544992
:103A0000BA681346DB0113449B000B44B0334FF4F8
:103A100000321A6000237B604D49BA681346DB010F
:103A200013449B000B4403F5C0731B7803F002039F
:103A3000002B60D0454ABB681B0113440C331B6844
:103A400019684348BA681346DB0113449B000344DA
:103A500003F5847319603E49BA681346DB011344C9
:103A60009B000B4403F5887340221A603849BA68FA
:103A70001346DB0113449B000B4403F58A730022B9
:103A80001A603349BA681346DB0113449B000B44A8
:103A900003F58C734FF480621A602D49BA6813469F
:103AA000DB0113449B000B4403F58E7300221A6064
:103AB0002749BA681346DB0113449B000B4403F506
:103AC000907300221A602249BA681346DB0113443E
:103AD0009B000B4403F5927300221A601C49BA68DC
:103AE0001346DB0113449B000B4403F5947300223F
:103AF0001A6000233B60BA681346DB0113449B0045
:103B000003F5C073124A1344181D104ABB681B0109
:103B1000134404331B680F4A19464DF06FFAF860DE
:103B2000FB68002B05D04FF4F1720B490B4820F0D5
:103B3000B3FBBB680133BB60BB68012B7FF6DCAE17
:103B4000FB6818461037BD4680BD00BF1001002439
:103B5000A4110024BCAD0990ECAD0990ACBD089057
:103B600080B590B004AFF860B9607A607B80FB6884
:103B7000002B05D140F2EF123249334820F08CFB84
:103B8000BB68002B05D14FF4F8722E492F4820F066
:103B900083FB7B883B6101237B610123BB610223A3
:103BA000FB6107F110031946786804F0A3FE7B88D7
:103BB00001221946786805F06FF9602020F0AAFF0D
:103BC000F862FB6A002B05D140F201221D49204812
:103BD00020F062FB082020F09DFFB862BB6A002B3A
:103BE00005D140F2032217491A4820F055FBBB6A61
:103BF0007A681A60BB6A7A889A80BB6AFA68B96880
:103C0000F86A4DF021FA78627B6A002B0BD07B6A50
:103C10000293FB680193BB6800930F4B01220F498D
:103C200003204CF071FA7B6A002B05D040F20D2284
:103C300004490B4820F030FB7B6A18463037BD46FC
:103C400080BD00BF00AE0990C0BD0890D4BD0890F3
:103C5000ECBD089004BE089018BE089088BD08907E
:103C6000ACBD089080B400AF00BFBD465DF8047BDA
:103C7000704700BF80B500AFFFF7F4FFFFF736FED7
:103C80000346184680BD00BF80B485B000AF194B15
:103C90000022C3F88420BFF34F8F164BD3F8803037
:103CA0007B607B685B0BC3F30E03FB607B68DB0808
:103CB000C3F30903BB600F49FB685A0143F6E07385
:103CC0001340BA6892071343C1F87432BB685A1E96
:103CD000BA60002BEFD1FB685A1EFA60002BE5D1C9
:103CE000BFF34F8FBFF36F8F00BF1437BD465DF832
:103CF000047B704700ED00E080B485B000AF7860D1
:103D00000023FB607B68802B42D0802B11D8082BCE
:103D100032D0082B06D8022B28D0042B29D0012B17
:103D200021D04DE0202B2DD0402B2ED0102B26D093
:103D300046E0B3F5006F37D0B3F5006F09D8B3F59F
:103D4000007F2BD0B3F5806F2BD0B3F5807F22D0CE
:103D500036E0B3F5005F2DD0B3F5804F2DD0B3F52D
:103D6000805F24D02CE00023FB602CE00123FB606B
:103D700029E00223FB6026E00323FB6023E0042309
:103D8000FB6020E00523FB601DE00623FB601AE0DA
:103D90000723FB6017E00823FB6014E00923FB60A6
:103DA00011E00A23FB600EE00B23FB600BE00C2309
:103DB000FB6008E00D23FB6005E00E23FB6002E0E2
:103DC0000023FB6000BFFB6818461437BD465DF852
:103DD000047B704790B589B002AF78607B68D3F8F8
:103DE000A8301B687B617B685B683B617B6803F183
:103DF000880441F288301CF06FFF03461A4607F131
:103E00000C030093134606224FF0FF3120461EF0AC
:103E1000B1FA0346002B0AD01F4B01221F49032091
:103E20004CF072F97B696FF001021A6231E03B6974
:103E30005A697B699A607B699B6903F00F03032BC6
:103E40000BD13B699A697B69DA603B69DA697B6906
:103E50001A613B691A6A7B695A61FA68104B134010
:103E6000002B13D0FB6803F00103002B09D07B6902
:103E70009B6903F00503002B03D07B6900221A62C3
:103E800007E07B694FF0FF321A6202E07B69002293
:103E90001A621C37BD4690BD34BE089050BE0890D3
:103EA0003F00000980B588B000AF786039603B689A
:103EB0001B68BB61BB695B6A7B617B685B683B615C
:103EC0007B6888330022012118461EF057FB7B686F
:103ED0003A68C3F8A8203B69DA6B494B13433A6947
:103EE000D363BB691B6843F48053FB617B69002B80
:103EF0002CD0FFF7C9FEFB6943F04003FB613B692F
:103F0000DB6B23F0C0023B69DA633B694FF0FF32A1
:103F10005A627B695B687A69126802FB03F23B694B
:103F20009A627B691B681846FFF7E6FE03461B0191
:103F30001A467B691B6903F002031A433B69DA6284
:103F4000304A3B699A653B6901221A65BB699B69E6
:103F500003F00F03032B04D1FB6943F44073FB61AF
:103F600009E0BB699B6903F00F03002B03D0FB69D9
:103F700043F48073FB61BB695A683B699A603B6993
:103F8000FA69DA607868FFF725FF7B69002B1BD0A0
:103F90001D4BFB6002E0FB68013BFB60FB68002BF4
:103FA00005D03B695B6B03F48053002BF3D1FB68B6
:103FB000002B05D03B695A6B144B1340002B03D0E8
:103FC000BB694FF0FF321A627B69002B13D07B690B
:103FD0001B6903F00203002B0DD07B6998687B6995
:103FE0005B687A69126802FB03F31A4605491FF001
:103FF00007FBFFF749FE00BF2037BD4680BD00BF6D
:10400000F7010001C015002440420F003F000009E5
:1040100080B588B000AF786039607B68D3F88830AD
:10402000FB613B685B68002B34D007F108030C226E
:10403000002118461FF088FA3B685B685B6ABB6129
:104040003B685B68BB60BB69002B1DD0BB695B68CC
:10405000BA69126802FB03F37B617B69B3F5805F89
:1040600005D94FF48B721A491A4820F015F9BB692B
:104070001B6903F00103002B06D0BB699B687A69BA
:10408000194615481FF0BCFA07F108031946F869EC
:10409000FFF708FF3B689B68002B0FD007F1080370
:1040A0000C22002118461FF04FFA3B689B68BB604A
:1040B00007F108031946F869FFF7F4FEFB691B686E
:1040C000184655F0CDF900BF2037BD4680BD00BF72
:1040D00028AE09905CBE0890C015002480B586B05B
:1040E00000AF78607B68D3F888307B617B695B6860
:1040F0003B613B695B6BFB603B69FA689A637B6978
:104100008833F96818461EF091F800BF1837BD468D
:1041100080BD00BF80B489B000AF786039603B6873
:104120001B68BB617B68D3F888307B617B695B6807
:104130003B61214BFB60BB69002B18D07B68DA68C0
:10414000BB699A4202D27B68DB68BB61BB695A00DB
:10415000FB6813445A1EBB695B00B2FBF3F3FB61BF
:10416000FB69B3F5806F02D340F2FF33FB613B681C
:104170005B7A022B04D1FB6943F48043FB6107E0C7
:104180003B685B7A032B03D1FB6943F40043FB617B
:104190003B69FA695A603B681B7A022B05D13B697F
:1041A0001B6843F003023B691A6000BF2437BD4619
:1041B0005DF8047B704700BF00C2EB0B80B584B094
:1041C00000AF78600023FB607B68002B01D10023E7
:1041D00078E0AC2020F09EFCF860FB68002B07D153
:1041E0003A4B01223A4903204BF08EFF002369E04D
:1041F000AC220021F8681FF0A7F955F087FEB860DF
:10420000BB68002B0AD1334B0122314903204BF00C
:104210007BFF00BFFB68002B53D04FE0FB680433EB
:104220008422796818461FF0EBF97B689B682A4A5C
:10423000934209D1FB68284A5A60FB688833002200
:10424000264918461DF08AFF7B689B68244A9342E2
:1042500009D1FB68224A5A60FB6888330022214951
:1042600018461DF07BFFBB681F4A5A60BB681F4A97
:104270009A60BB681E4ADA60BB684FF44012DA618C
:10428000BB6825221A62BB684FF480525A62BB6831
:1042900001229A62BB684FF40072DA62BB684FF485
:1042A00000721A63FB68BA681A60BB68FA68C3F8E0
:1042B0008820B86855F05EFDBB6803E0F86820F020
:1042C00089FC002318461037BD4680BD74BE089097
:1042D00050BE08908CBE0890007000529CBE0890A2
:1042E00000240248A4BE089018AE0990801A060067
:1042F00040787D0180B500AF1FF07CF8044B1B684F
:104300001846FFF7EBFE1FF095F800BF80BD00BF19
:10431000AC15002480B500AF1FF06CF8044B1B688F
:104320001846FFF7DBFE1FF085F800BF80BD00BF19
:10433000B015002480B5C2B000AF1F4BC7F88C3059
:1043400007F1840308331846FDF746FA07F18403A2
:104350001846FFF733FF0246184B1A60174B1B68CD
:10436000002B07D1164B0122164903204BF0CCFE3F
:1043700000231BE03B46144A9A603B46083318462C
:10438000FDF72AFA3B461846FFF718FF02460F4B87
:104390001A600E4B1B68002B07D10D4B01220949F7
:1043A00003204BF0B1FE002300E00023184607F580
:1043B0008477BD4680BD00BF00700052AC1500245C
:1043C000ACBE089050BE089000240248B0150024EE
:1043D000C0BE089080B500AF034B1B68184655F06F
:1043E000C9FC00BF80BD00BFAC15002480B584B0FF
:1043F00000AF78600023FB607B68002B07D1094B7E
:104400001B6818467BF064FC0346FB6005E07B6894
:10441000012B02D140F27623FB60FB68184610376F
:10442000BD4680BDC425002480B584B000AFF860CF
:10443000B9607A603B60FB68002B07D10B4B1868B2
:104440003B687A68B9685AF0BBFE0AE0FB68012B4A
:1044500007D1BB68064A13443A6819467868FBF7E7
:10446000E7FF3B6818461037BD4680BDC4250024D1
:1044700040AE099080B586B002AF78605AF022FC59
:1044800033485AF05FFE0246324B1A60314B1B68CC
:10449000002B08D12E4B00932F4B01222F490320D4
:1044A0004BF032FE50E00023FB607AF07DFC0346C7
:1044B000002B27DB2A485AF045FE034618467AF0BF
:1044C00015FF0346002B1DDB7AF0CEFF0346002BC1
:1044D0000BD07BF011FCF860FB68002B05DA214B58
:1044E00001221E4903204BF00FFEFB68002B09DB65
:1044F0001B485AF027FE03464FF48052002118460D
:104500005AF06AFF134B1B6818467AF0EFFE034619
:10451000002B11DB73F080FE4FF47A701CF0DCFB93
:104520000346184621F092FA01210F4851F03CFB56
:104530000E4B01221A6007E0054B00930C4B012241
:10454000064903204BF0E0FD1037BD4680BD00BF9B
:10455000D4BE0890C4250024E0BE08901CBF08907B
:1045600024BF089030BF089044BF0890C0250024A5
:104570004CBF089080B584B002AF144B1B68012B70
:1045800001D100231DE000237B601423019310233D
:1045900000934FF4805300220D490E4821F07AF920
:1045A00078607B68002B04D0786821F023F9002321
:1045B00007E0094B0122094903204BF0A5FD4FF00C
:1045C000FF3318460837BD4680BD00BFC025002414
:1045D0007544009078BF089084BF08901CBF089075
:1045E00080B500AF00212D204CF07AFC01212D2058
:1045F0004CF096FC0023184680BD00BF80B485B007
:1046000000AF194B0022C3F88420BFF34F8F164B25
:10461000D3F880307B607B685B0BC3F30E03FB60D9
:104620007B68DB08C3F30903BB600F49FB685A01D1
:1046300043F6E0731340BA6892071343C1F860323F
:10464000BB685A1EBA60002BEFD1FB685A1EFA6095
:10465000002BE5D1BFF34F8FBFF36F8F00BF14372F
:10466000BD465DF8047B704700ED00E080B485B086
:1046700000AF194B0022C3F88420BFF34F8F164BB5
:10468000D3F880307B607B685B0BC3F30E03FB6069
:104690007B68DB08C3F30903BB600F49FB685A0161
:1046A00043F6E0731340BA6892071343C1F87432BB
:1046B000BB685A1EBA60002BEFD1FB685A1EFA6025
:1046C000002BE5D1BFF34F8FBFF36F8F00BF1437BF
:1046D000BD465DF8047B704700ED00E080B487B014
:1046E00000AF786039603B687B617B683B61202369
:1046F000FB60BFF34F8F0BE00C4A3B69C2F85C32A2
:10470000FB683A6913443B617A69FB68D31A7B61A1
:104710007B69002BF0DCBFF34F8FBFF36F8F00BFBF
:104720001C37BD465DF8047B704700BF00ED00E01C
:1047300080B500AF084B1B68002118464CF0F0FB19
:10474000322021F08FF9044B1B68012118464CF0F0
:10475000E7FB00BF80BD00BF0027002480B5A2B0EA
:1047600000AF786000233B61002387F88730814ADF
:10477000804BD3F8DC3043F00043C2F8DC307D4B93
:10478000D3F8DC3003F00043FB60FB68FFF7D0FF99
:10479000794B7A4A1A60784B794A5A60764B0122F3
:1047A0001A72754B774ADA60734B774A1A61724B0B
:1047B0004FF4BF625A61FFF721FF6F4808F036FFE0
:1047C0006D4808F05BFE0346002B05D06F4B0122BD
:1047D0006F4903204BF098FC342200216D481EF0F5
:1047E000B3FE6C4B21221A606A4B4FF440325A617F
:1047F000684B00221A610023C7F8803012E0D7F816
:104800008010D7F880304FF4BF6202FB03F3624A96
:104810001A440023584808F01BFFD7F880300133B2
:10482000C7F88030D7F88030032BE8DD524809F014
:104830006BFE0023FB671EE0F96F07F110031222E5
:104840004D4809F0AFFB0346002B03D0012387F846
:1048500087300DE03B6903F00102FB6F9A4207D1FC
:10486000FB6FDAB24D4B1A70002387F8873008E0EF
:10487000FB6F0133FB67494B1B781A46FB6F9A426B
:10488000DADA464B1B7819464FF4004300223A48C7
:1048900009F0DCFB0346002B2CD1404B1B7819465A
:1048A00007F110031222344809F07CFB1CF0DCF9FC
:1048B000B8671AE01CF0D8F90246BB6FD31AB3F5FB
:1048C000FA7F0FD8354B1B78194607F110030022E9
:1048D000294809F067FB0346002B06D0012387F81F
:1048E000873007E0022387F887303B6903F40043F1
:1048F000002BDFD14FF4FA6021F0A8F8274B1B788A
:10490000194607F1100300221B4809F04BFB034630
:10491000002B25D13B6943F480533B611F4B1B782F
:1049200019463B690022144809F090FB01211C48FC
:1049300033F09AFE07F1140319460F4809F0DAFB29
:104940004FF40053FB624FF48043BB6207F1140342
:104950001946094809F0BEFD074808F0BBFE02E011
:10496000012387F8873097F8873018468837BD4687
:1049700080BD00BF00440258C825002400800240CA
:10498000F02600246000043000000430ACBF089022
:10499000C8BF0890382600240002043030010024EB
:1049A0006C26002480B483B000AF78600B467B8017
:1049B000002318460C37BD465DF8047B704700BFE6
:1049C00080B483B000AF7860002318460C37BD4632
:1049D0005DF8047B704700BF80B584B000AFF8601D
:1049E000B9607A603B606FF005001EF073FD002334
:1049F00018461037BD4680BD80B584B000AFF86062
:104A0000B9607A603B606FF005001EF063FD002323
:104A100018461037BD4680BD80B584B000AFF86041
:104A2000B9607A60BB68012B00D00BE07B68002B7B
:104A300005D00622064978681EF0E2FD02E04FF03C
:104A4000FF3300E0002318461037BD4680BD00BF8D
:104A5000F026002480B596B002AF7860396001235B
:104A60003B640023FB640023BB6407F10C0330228A
:104A7000002118461EF068FD3B687B644FE0FB6C2C
:104A8000032B02D96FF00B0380E07B6C5968FA6C42
:104A900013465B0013449B0007F150021344443B50
:104AA00019607B6C5B891946FA6C13465B001344F2
:104AB0009B0007F150021344403B19607B6C5B89FB
:104AC0001A46BB6C1344BB64FB6C002B12D0FB6C0E
:104AD0005A1E07F10C00F96C0B465B000B449B005F
:104AE000C11813465B0013449B0007F150021344A6
:104AF0003C3B19607B6C1B68002B0AD1FA6C134697
:104B00005B0013449B0007F1500213443C3B00221E
:104B10001A60FB6C0133FB647B6C1B687B647B6CF1
:104B2000002BACD11B4ABB6C53601A4A07F10C0333
:104B30009360194B93F87730002B1ED0FFF796FD4A
:104B40004FF47A721349154808F05AFE034687F865
:104B50003F3097F83F30002B15D0104BDB6D0093A2
:104B60000F4B01220F4904204BF0CEFA0B4B1022C1
:104B7000DA650A4B10225A6505E00B4B0122094900
:104B800003204BF0C1FA00233B643B6C18465037BE
:104B9000BD4680BD382600246C260024C82500248C
:104BA000D4BF0890C8BF0890F4BF089080B58AB001
:104BB00000AF78600023BB6100233B6207F10C0368
:104BC00019461F4808F086FF0346002B33D107F132
:104BD000180319461A4809F01BF8194809F04CF84F
:104BE000FB68BA6911461846FFF778FDBB699BB2AE
:104BF0000022194604202BF055FD38623B6A002B39
:104C000019D03B6AFB610023FB8411E0FB69586803
:104C1000FA68FB8CD118FB695B891A46FBF708FC24
:104C2000FB695A89FB8C1344FB84FB691B68FB619D
:104C3000FB69002BEAD13B6A18462837BD4680BD88
:104C4000C825002480B500AF1EF0D4FB034809F04E
:104C500087F81EF0EFFB00BF80BD00BFC825002411
:104C600080B586B002AF7860094833F0E7FCF860A1
:104C7000FB68002B07D0FB680093064B0122064916
:104C800006204BF041FA00BF1037BD4680BD00BF83
:104C90006C2600241CC00890C8BF089080B584B062
:104CA00000AF0023FB73374B1B78194607F108034D
:104CB0000122354809F076F9BB6803F02403002B84
:104CC0001FD000237B60FB7B43F00103FB732D4B64
:104CD0001B7819463B1D1F222B4809F063F97B689E
:104CE00003F00803002B03D0FB7B43F00203FB73AC
:104CF0007B6803F01003002B03D0FB7B43F004031D
:104D0000FB73224B1B78FA7B9A4237D01F4AFB7BFE
:104D100013701E4B1B7803F00103002B24D01B4B98
:104D20001B7803F00203002B05D0194B4FF480428F
:104D3000C3F88C2003E0164B0022C3F88C20134BE1
:104D40001B7803F00403002B05D0114B4FF40052E5
:104D5000C3F8902003E00E4B0022C3F890200121FD
:104D60000B4833F081FC09E00A4B01220A49062076
:104D70004BF0CAF90021064833F076FC00BF10372B
:104D8000BD4680BD30010024C8250024042700242E
:104D90006C2600243CC00890C8BF089080B584B041
:104DA00002AF7860FFF77AFF022300934FF47A7323
:104DB00000221049104821F037F902460F4BC3F882
:104DC00080200E4BD3F88030002B08D00B4BD3F84B
:104DD0008030184621F048F90346002B05D0084BD7
:104DE0000122084903204BF08FF900BF0837BD4668
:104DF00080BD00BF9D4C009048C008906C260024E8
:104E000050C00890C8BF089080B584B002AF00239E
:104E10007B6040484CF0C2F803461A463E4B1A608D
:104E20003D4B1B68002118464CF05AF83A4B1B6862
:104E3000012118464CF074F8384B4FF48042C3F807
:104E40008C20364B4FF40052C3F89020334B002295
:104E500083F88420314B802283F885202F4BE12278
:104E600083F886202E4B1A782C4B83F887202D4B05
:104E70001A782A4B83F888202B4B1A78274B83F813
:104E80008920264B294A5A62244B294A9A62234B8D
:104E9000284ADA62214B284A1A63204B274A5A6370
:104EA0001E4B274A9A631D4B0022DA641B4B254A8E
:104EB0009A671A4B244ADA672449184833F07EFB74
:104EC00078607B68002B0AD07B680093204B01221E
:104ED000204903204BF018F94FF0FF337B60022389
:104EE00001931E2300934FF4806300221A491B484C
:104EF00020F0D0FC38603B68002B03D0386820F0ED
:104F000079FC02E04FF0FF337B607B68184608377E
:104F1000BD4680BD7CC00890002700246C2600247C
:104F200004E8F11F02E8F11F00E8F11F5D4700905F
:104F3000A5490090C1490090D9490090F9490090D5
:104F4000194A0090AD4B0090554A009084C00890DB
:104F500088C00890C8BF08909D4D0090A4C00890DC
:104F600080B500AF1023074A07490848FEF7F8FD4F
:104F7000054907484CF0DAFE59F0A4FE0023184614
:104F800080BD00BF00000258A8C00890B0C00890C3
:104F9000B8C0089080B400AF294A294BD3F88830B4
:104FA00043F47003C2F88830264A264B1B6843F04E
:104FB00001031360234B00221A612249214B1A6816
:104FC000214B13400B601F4B00229A611D4B0022A6
:104FD000DA611C4B00221A621A4B00229A62194BAA
:104FE0000022DA62174B00221A63164B00225A6322
:104FF000144B00229A63134B0022DA63114B0022F8
:105000001A64104B00225A640E4A0E4B1B6823F49C
:10501000802313600B4B00221A660C4B1A680C4B52
:105020001340B3F1005F02D20A4B01221A60044B15
:105030004FF000629A6000BFBD465DF8047B704788
:1050400000ED00E0004402587FEDF6EA0010005C3D
:105050000000FFFF0881005180B500AF032000F081
:1050600057F901F06DFF0146134B9B6903F4706320
:105070001B0A124AD35C03F01F0321FA03F3104A00
:1050800013600F4B1A680C4B9B6903F00F030B491D
:10509000CB5C03F01F0322FA03F30A4A13600020DB
:1050A000FCF770FE0346002B01D0012302E0FCF761
:1050B00085FA0023184680BD00440258B8B0099014
:1050C000340100243801002480B400AF064B1B7863
:1050D0001A46064B1B681344044A136000BFBD46C2
:1050E0005DF8047B704700BF400100244C8F002412
:1050F00080B400AF034B1B681B0C1846BD465DF81F
:10510000047B70470010005C80B483B000AF78600F
:105110000649064B5B6823F460027B6813434B60CF
:1051200000BF0C37BD465DF8047B70470004005893
:1051300080B485B000AF78607B6803F00703FB6044
:105140000B4BDB68BB60BA684FF6FF031340BB60D4
:10515000FB681A02BB681A43064B1343BB60044A40
:10516000BB68D36000BF1437BD465DF8047B704751
:1051700000ED00E00000FA0580B400AF044BDB68EE
:1051800003F4E0631B0A1846BD465DF8047B7047D4
:1051900000ED00E080B483B000AF0346FB80B7F9B8
:1051A0000630002B0BDB0949B7F906305B09FA889A
:1051B00002F01F02012000FA02F241F8232000BF92
:1051C0000C37BD465DF8047B704700BF00E100E08E
:1051D00080B483B000AF0346FB80B7F90630002BE4
:1051E00010DB0B49B7F906305B09FA8802F01F02A1
:1051F000012000FA02F2203341F82320BFF34F8F41
:10520000BFF36F8F00BF0C37BD465DF8047B70475E
:1052100000E100E080B483B000AF03463960FB805A
:10522000B7F90630002B0ADB0D49B7F906303A68AA
:10523000D2B21201D2B20B4483F800230AE009492A
:10524000FB8803F00F03043B3A68D2B21201D2B2DA
:105250000B441A7600BF0C37BD465DF8047B7047DF
:1052600000E100E000ED00E080B489B000AFF8603C
:10527000B9607A60FB6803F00703FB61FB69C3F167
:105280000703042B28BF0423BB61FB690433062BEF
:1052900002D9FB69033B00E000237B610122BB696B
:1052A00002FA03F35A1EBB681A407B699A40012137
:1052B0007B6901FA03F3591E7B680B4013431846C0
:1052C0002437BD465DF8047B704700BF80B582B0CF
:1052D00000AF78607B68013BB3F1807F01D301238D
:1052E0000FE00A4A7B68013B53600F214FF0FF300B
:1052F000FFF790FF054B00229A60044B07221A60CB
:10530000002318460837BD4680BD00BF10E000E00E
:1053100080B582B000AF78607868FFF709FF00BF02
:105320000837BD4680BD00BF80B586B000AF0346DC
:10533000B9607A60FB81FFF71FFF78617A68B9680E
:105340007869FFF791FF0246B7F90E30114618460B
:10535000FFF760FF00BF1837BD4680BD80B582B043
:1053600000AF0346FB80B7F906301846FFF712FF7F
:1053700000BF0837BD4680BD80B582B000AF034690
:10538000FB80B7F906301846FFF722FF00BF083749
:10539000BD4680BD80B582B000AF78607868FFF709
:1053A00095FF034618460837BD4680BD80B400AF60
:1053B000BFF35F8F064A064B5B6A23F48033536268
:1053C000044B00225A6000BFBD465DF8047B704765
:1053D00000ED00E090ED00E080B483B000AF7860B5
:1053E0000A4A7B6843F001035360094A084B5B6A31
:1053F00043F480335362BFF34F8FBFF36F8F00BF0F
:105400000C37BD465DF8047B704700BF90ED00E0AF
:1054100000ED00E080B483B000AF78601E4A7B6886
:105420005B7893607B681B78002B28D01A4A7B68D6
:105430005B68D36018497B681B7B1A077B68DB7A43
:105440001B061A437B689B7ADB041A437B685B7BF1
:105450009B041A437B689B7B5B041A437B68DB7B62
:105460001B041A437B685B7A1B021A437B681B7A16
:105470005B0013437A68127813430B6105E0064B17
:105480000022DA60044B00221A6100BF0C37BD46CF
:105490005DF8047B704700BF90ED00E080B483B0FE
:1054A00000AF78607B68042B06D1094A084B1B6863
:1054B00043F00403136005E0054A054B1B6823F025
:1054C0000403136000BF0C37BD465DF8047B7047D2
:1054D00010E000E080B586B000AF7860FCF734FCE7
:1054E00038617B68002B01D1012328E27B681B68AF
:1054F000664A93424AD07B681B68654A934245D00E
:105500007B681B68634A934240D07B681B68624A91
:1055100093423BD07B681B68604A934236D07B68DD
:105520001B685F4A934231D07B681B685D4A934297
:105530002CD07B681B685C4A934227D07B681B6831
:105540005A4A934222D07B681B68594A93421DD025
:105550007B681B68574A934218D07B681B68564A81
:10556000934213D07B681B68544A93420ED07B68E9
:105570001B68534A934209D07B681B68514A934287
:1055800004D07B681B68504A934201D1012300E09C
:105590000023002B00F00B817B68002283F834206D
:1055A0007B68022283F835207B681B68374A934268
:1055B0004AD07B681B68364A934245D07B681B689B
:1055C000344A934240D07B681B68334A93423BD0B5
:1055D0007B681B68314A934236D07B681B68304A2F
:1055E000934231D07B681B682E4A93422CD07B6853
:1055F0001B682D4A934227D07B681B682B4A934235
:1056000022D07B681B682A4A93421DD07B681B68A6
:10561000284A934218D07B681B68274A934213D0CC
:105620007B681B68254A93420ED07B681B68244A1E
:10563000934209D07B681B68224A934204D07B685E
:105640001B68214A934208D17B681B687A681268FC
:10565000126822F001021A6007E07B681B687A6812
:105660001268126822F001021A602FE0FCF76CFB4E
:1056700002463B69D31A052B28D97B6820225A653C
:105680007B68032283F83520012358E11000024093
:1056900028000240400002405800024070000240D2
:1056A00088000240A0000240B800024010040240FE
:1056B00028040240400402405804024070040240A2
:1056C00088040240A0040240B80402407B681B68C2
:1056D0001B6803F00103002BC8D17B681B681B68A3
:1056E0007B617A69984B13407B617B689A687B6821
:1056F000DB681A437B681B691A437B685B691A4342
:105700007B689B691A437B68DB691A437B681B6A69
:1057100013437A6913437B617B685B6A042B07D16F
:105720007B68DA6A7B681B6B13437A6913437B617E
:105730007B681B687A691A607B681B685B697B61A0
:105740007B6923F007037B617B685B6A7A6913439B
:105750007B617B685B6A042B17D17B689B6A7A69E3
:1057600013437B617B68DB6A002B0ED0786800F006
:10577000BBFC0346002B08D07B6840225A657B683F
:10578000012283F835200123D9E07B681B687A6900
:105790005A61786800F0F6FB0346FB607B68DB6DBE
:1057A00003F01F033F229A40FB689A608CE07B68FD
:1057B0001B68664A934222D07B681B68644A934206
:1057C0001DD07B681B68634A934218D07B681B68B6
:1057D000614A934213D07B681B68604A93420ED0A3
:1057E0007B681B685E4A934209D07B681B685D4AF0
:1057F000934204D07B681B685B4A934201D101232A
:1058000000E00023002B56D07B68002283F8342070
:105810007B68022283F835207B681B681B687B61EC
:105820007A69524B13407B617B689B68402B08D0A0
:105830007B689B68802B02D14FF4804302E00023F9
:1058400000E010237A68D268D2081A437B681B698B
:10585000DB081A437B685B69DB081A437B689B693A
:10586000DB081A437B68DB69DB081A437B681B6A29
:105870001B0913437A6913437B617B681B687A6950
:105880001A607B681B681A46394B1344394AA2FBDD
:1058900003231B099A007B68DA65786800F072FBC5
:1058A0000346BB607B68DB6D03F01F0301229A4057
:1058B000BB685A6008E07B6840225A657B68032217
:1058C00083F8352001233AE0786800F089FC7B6892
:1058D0009B68802B02D17B6800225A607B681B6E1C
:1058E0007A685268D2B21A607B685B6E7A68926E90
:1058F0005A607B685B68002B10D07B685B68082B64
:105900000CD8786800F006FD7B68DB6E00221A6018
:105910007B681B6F7A68526F5A6008E07B680022D0
:10592000DA667B6800221A677B6800225A677B6808
:1059300000225A657B68012283F83520002318462F
:105940001837BD4680BD00BF3F8010FE0854025886
:105950001C540258305402584454025858540258A7
:105960006C54025880540258945402580F00FEFFA1
:10597000F8ABFDA7CDCCCCCC80B586B000AFF8603D
:10598000B9607A603B600023FB75FB68002B01D196
:105990000123A9E1FB6893F83430012B01D10223E4
:1059A000A2E1FB68012283F83420FB6893F83530CC
:1059B000DBB2012B40F08D81FB68022283F8352099
:1059C000FB6800225A65FB681B68684A93424AD00C
:1059D000FB681B68664A934245D0FB681B68654AB2
:1059E000934240D0FB681B68634A93423BD0FB68FC
:1059F0001B68624A934236D0FB681B68604A934238
:105A000031D0FB681B685F4A93422CD0FB681B684F
:105A10005D4A934227D0FB681B685C4A934222D0C0
:105A2000FB681B685A4A93421DD0FB681B68594AA1
:105A3000934218D0FB681B68574A934213D0FB6807
:105A40001B68564A93420ED0FB681B68544A934227
:105A500009D0FB681B68534A934204D0FB681B685B
:105A6000514A934208D1FB681B68FA6812681268B1
:105A700022F001021A6007E0FB681B68FA681268EE
:105A8000126822F001021A603B687A68B968F86807
:105A900000F05AF9FB681B68344A93424AD0FB680D
:105AA0001B68334A934245D0FB681B68314A9342D6
:105AB00040D0FB681B68304A93423BD0FB681B68B0
:105AC0002E4A934236D0FB681B682D4A934231D050
:105AD000FB681B682B4A93422CD0FB681B682A4A40
